:020000040800F2
:10000000C807002045010008071600082914000849
:10001000C51500085B0B0008CF2600080000000093
:10002000000000000000000000000000111D00089A
:10003000010D000800000000091A0008851E0008D4
:100040005F0100085F0100085F0100085F01000810
:100050005F0100085F010008C10E0008190F0008C9
:100060005F0100085F0100085F0100085F010008F0
:100070005F0100085F0100085F0100085F010008E0
:100080005F0100085F0100085F0100085F010008D0
:100090005F0100085F0100085F010008750F00089C
:1000A0005F0100084D1F00085F0100085F010008A4
:1000B0005F0100085F0100085F0100085F010008A0
:1000C0005F0100085F0100085F0100085F01000890
:1000D0005F0100081D2400085F010008A524000836
:1000E0005F0100085F0100085F0100085F01000870
:1000F0005F0100085F0100085F0100085F01000860
:100100005F0100085F0100085F0100085F0100084F
:100110005F0100085F0100085F0100085F0100083F
:100120005F0100085F0100085F0100085F0100082F
:10013000DFF80CD000F06CFB0048004729280008CD
:10014000C80700200648804706480047FEE7FEE74C
:10015000FEE7FEE7FEE7FEE7FEE7FEE7FEE7FEE777
:10016000891E000831010008F0B480EA0102D40FB2
:100170004200B2EB410F02D20246084611464A0045
:1001800042D0C30DDDB2C1F3C752AD1A202D35DA0E
:10019000C1F3160141F4000204B15242C5F1200638
:1001A00002FA06F12A411044B3EBD05F23D0C4B168
:1001B000012DA0EBC35009DCF0BC4FF0004202EA75
:1001C000C352DBB200F5000000F097BA400000F126
:1001D000807000EBC350A0F1807040EAD1704900FC
:1001E00009E0490841EAC071A0EBC35000F50000E6
:1001F000400800EBC350F0BC00F076BA6142012227
:1002000002EB4101001BF6E7F0BC704781F00041B2
:10021000AAE780F00040A7E780EA010210B502F0EB
:100220000043400022D04A001FD0010E01EB1261B2
:10023000C0F35600C2F3560240F4000042F400023C
:10024000A0FB022000047F39140400D0401C50EAB7
:10025000124001D44000491EC2B20C0604EBD0107B
:10026000401C4008802A02D003E0002010BD20F08E
:100270000100002900DA0020184310BD2DE9FE4FCF
:10028000804681EA0300C00F0C46009021F0004137
:1002900023F00045B8EB0200A94105D240462146B3
:1002A00090461C460B46024623F00040104347D0C0
:1002B000270DC7F30A00C3F30A510290401A0190B8
:1002C00040286BDAC3F3130040F4801B0098924679
:1002D00020B10023D2EB030A63EB0B0B01985946C4
:1002E000C0F14002504600F0CEF906460D46504699
:1002F0005946019A00F0E6F910EB0800614100242C
:1003000087EA115284EAE7731A4340D0009A62B335
:10031000019A012A4FEA075215DC001B61EB02012A
:100320004FF0004202EA0752CDE90042001C41F5BD
:10033000801132462B4600F01DFA03B0BDE8F08F65
:1003400040462146F9E7001B61EB0201001C41F524
:10035000801300185B412018A2F5001747EB03013A
:1003600040EAD570B6196D4111E06D084FEA3606C6
:1003700045EAC0754FEA0752001B61EB0201001C01
:1003800041F5801149084FEA3000001951413246C9
:100390002B4603B0BDE8F04F00F0DDB90098012214
:1003A00040000023D0EB020263EBE073009821468B
:1003B0004FEAE074B8EB000061EB0401E9E783F079
:1003C00000435BE781F0004158E72DE9FE4F81EAE9
:1003D000030404F0004421F0004100944FF0000BAE
:1003E00023F0004350EA01045ED052EA03045BD0DC
:1003F000C3F30A54C1F30A552C44A4F2F334019414
:10040000A0FB0254C1F3130141F48011C3F31303A1
:1004100043F4801301FB024400FB034E840A970A55
:1004200044EA815447EA8357A4FB076802958D0A82
:1004300005FB07854FEA932C04FB0C542705029D0E
:100440004FEA065847EA1637B5EB08056EEB070C7E
:10045000870E920E47EA811742EA8312A7FB020138
:10046000B6EB0B0164EB00042B0D43EA0C335E1872
:1004700044EB1C50DA465146E7FB0201C5F3130476
:100480004FEA0B3343EA14534FEA0432019C43EA28
:100490000603A4F10C040294009CCDE900B400F022
:1004A00069F903B0BDE8F08F00200146F9E72DE9B6
:1004B000F04D81EA030404F0004B21F0004514469E
:1004C0004FF0000A23F0004150EA050220D054EA20
:1004D00001021DD0C5F30A570246C5F31303C1F349
:1004E0001300C1F30A5640F4801543F48013A7EBC0
:1004F0000608101BD64608F2FD3873EB050002D340
:1005000008F1010801E092185B41B8F1000F03DA2D
:1005100000200146BDE8F08D00204FF48011064612
:1005200084460EE0171B73EB050705D3121B63EB24
:10053000050306434CEA010C49084FEA30009218C3
:100540005B4150EA0107EDD152EA030012D082EA82
:10055000040083EA0501084305D0101BAB4106D215
:100560000122002306E000224FF0004302E06FF07A
:10057000010253101AEB06004CEB085110EB0A0075
:1005800041EB0B01BDE8F04D00F0E5B8C10F80EA8A
:10059000E0700844CA079623002100F0AEB80EB5FB
:1005A00040F2334102910021CDE900110A460B4689
:1005B00000F0E0F803B000BD00F0004220F0004081
:1005C000C10DC0F3160040F400007F2901DA0020BD
:1005D0007047962903DCC1F19601C84001E09639C5
:1005E0008840002AF4D04042704770B5C1F30A52E7
:1005F00001F000450024C1F3130140F2FF3341F440
:1006000080119A4201DA002070BD40F233439A42D1
:10061000A2F2334203DC524200F044F800E0904082
:100620002C43F1D0404270BD00F0004230F0004059
:100630000AD0C10D01F56071C0F3160042EA015104
:10064000C20840071143704700200146704701F07F
:10065000004330B421F0004150EA010206D00A0DF7
:10066000A2F56072C1F31301002A02DC30BC002045
:100670007047440F44EAC104C100E01830BC00EBED
:10068000C25000F031B8202A04DB203A00FA02F10F
:10069000002070479140C2F1200320FA03F3194370
:1006A00090407047202A04DB203A21FA02F0002112
:1006B000704721FA02F3D040C2F120029140084372
:1006C00019467047202A06DBCB17203A41FA02F080
:1006D00043EAE07306E041FA02F3D040C2F120029F
:1006E00091400843194670470029A8BF7047401C35
:1006F000490008BF20F00100704710B4B0FA80FC38
:1007000000FA0CF050EA010404BF10BC704749B174
:10071000CCF1200421FA04F411FA0CF118BF0121E4
:1007200021430843A3EB0C01CB1D4FEA00614FEAC4
:10073000102042BF002010BC704700EBC350104493
:100740000029A4BF10BC7047401C490008BF20F01E
:10075000010010BC704710B5141E73F1000408DAD4
:10076000401C41F1000192185B411A4301D120F075
:10077000010010BD2DE9F04D92469B4611B1B1FA32
:1007800081F202E0B0FA80F220329046FFF77BFF60
:1007900004460F4640EA0A0041EA0B0153465A4616
:1007A000084313D0114653EA010019D0C8F14002A2
:1007B0005046FFF777FF05460E46504659464246DB
:1007C000FFF761FF084305D0012004E020463946C9
:1007D000BDE8F08D0020054346EAE0762C43374320
:1007E0000A986305E40AA0EB08000022FD0A44EA27
:1007F00047540A3002D500200146E9E701051019E7
:100800006941DDE9084500196941BDE8F04DA2E7FD
:10081000064C074D06E0E06840F0010394E807004D
:1008200098471034AC42F6D3FFF786FC1C29000829
:100830003C29000808B50121084601F0F3F8012120
:100840004FF4067001F00EF92020ADF800001020E2
:100850008DF8030003208DF802006946194800F066
:1008600049FD2021174800F0D0FD4020ADF80000E0
:1008700010208DF8030003208DF80200694611480E
:1008800000F038FD40210F4800F0BFFD8020ADF89A
:10089000000010208DF8030003208DF80200694647
:1008A000084800F027FD8021064800F0AEFD0F202B
:1008B000ADF8000000208DF803006946024800F002
:1008C00019FD08BD000C01400010014000B591B0B9
:1008D0003D4800F051F93D4806903D480790002002
:1008E00008900A9080200B90C82009904FF48070E7
:1008F0000C9080000D9020200E9000020F900020A0
:10090000109006A9304800F0DDF901212E4800F0D2
:1009100026F90020019001208DF808008DF80900CB
:100920004FF4602003900020049004208DF8140000
:1009300001A926484C3800F077F84FF4004001F048
:1009400065F8072301220A2120484C3800F094F86A
:10095000072302220B211D484C3800F08DF8072395
:1009600003220C2119484C3800F086F80723042292
:100970000D2116484C3800F07FF8012113484C38FF
:1009800000F033F8012111484C3800F023F80F48EB
:100990004C3800F0CDF800BF0C484C3800F03AF865
:1009A0000028F9D109484C3800F0D2F800BF0748B8
:1009B0004C3800F025F80028F9D1012103484C38C3
:1009C00000F0BBF811B000BD080002404C2401400B
:1009D0002401002021B1826842F00102826003E01C
:1009E000826822F001028260704721B1826842F47D
:1009F0008072826003E0826822F4807282607047B5
:100A0000014600208A6802F004020AB1012000E0D9
:100A100000207047014600208A6802F008020AB1EF
:100A2000012000E00020704730B50246002000237E
:100A300050680F4C20400D790C6844EA052420438F
:100A4000506090680B4C2040D1E902542C434D7902
:100A500044EA450420439060D06A20F470000C7C86
:100A6000641EE4B2234340EA0350D06230BD00006C
:100A7000FFFEF0FFFDF7F1FFF0B504460D46002044
:100A80000021092D11DDE068A5F10A0606EB4607F5
:100A9000072606FA07F18843A5F10A0606EB460683
:100AA00003FA06F10843E0600CE0206905EB450716
:100AB000072606FA07F1884305EB450603FA06F117
:100AC00008432061072A0FDA606B561E06EB860783
:100AD0001F2606FA07F18843561E06EB860605FA1E
:100AE00006F10843606322E00D2A0FDA206BD61F5F
:100AF00006EB86071F2606FA07F18843D61F06EB8A
:100B0000860605FA06F10843206310E0E06AA2F1C8
:100B10000D0606EB86071F2606FA07F18843A2F1A9
:100B20000D0606EB860605FA06F10843E062F0BD05
:100B3000816841F008018160704721B1826842F408
:100B4000A002826003E0826822F4A0028260704703
:100B5000816841F004018160704700BFFEE721B168
:100B6000026842F00102026004E002684FF6FE7380
:100B70001A4002607047000001684FF6FE72114093
:100B800001600021016041608160C1604B49884281
:100B900008D14A490839496841F00F01474A083AE3
:100BA00051608AE045491431884208D143490839E7
:100BB000496841F0F001414A083A51607DE03F49FF
:100BC0002831884208D13D490839496841F47061AB
:100BD0003A4A083A516070E038493C31884208D1BD
:100BE00036490839496841F47041344A083A51603D
:100BF00063E032495031884208D1304908394968A8
:100C000041F470212D4A083A516056E02B49643175
:100C1000884208D129490839496841F47001274AB6
:100C2000083A516049E025497831884208D1234982
:100C30000839496841F07061204A083A51603CE047
:100C40001F49884206D1011F096841F00F01021FA8
:100C5000116032E01A491431884208D11849091F3D
:100C6000096841F0F001164A121F116025E014498D
:100C70002831884208D11249091F096841F470617E
:100C80000F4A121F116018E00D493C31884208D10B
:100C90000B49091F096841F47041094A121F11608C
:100CA0000BE007495031884207D10549091F0968FF
:100CB00041F47021024A121F11607047080002407F
:100CC0000804024010B50022026847F6F0739A4308
:100CD0000C6A8B6823430C6923434C6923438C695A
:100CE0002343CC6923434C6A23438C6A23431A432E
:100CF0000260CB6843600B6883604B68C36010BDC3
:100D00007047000010B56FF0040001F0A7F80A4822
:100D100000680A49B0FBF1F00949087008460078FC
:100D200000EB4001C1EBC0104FF6FF7101EAC000BB
:100D30000449088010BD00000000002000127A0065
:100D4000B4000020B60000202DE9F05F00205049DB
:100D500008605049C1F898014D49083108600520E4
:100D600001F01CFD00BF80214B4801F0E3FB00288F
:100D7000F9D001F039FD0020484908802FE04849AA
:100D8000464A128831F8120000F043FB4549434AB5
:100D9000128821F81200414A128831F81200FFF738
:100DA000FEFB82460022404BFFF781FB80463F4A14
:100DB0003F4BFFF704FB064632460B463D483E4993
:100DC000FFF775FB0446FFF710FC3C49334A1288D5
:100DD00021F8120031480088401C304908802F4813
:100DE00000880428CBDB012029490860002029491C
:100DF000C1F89801264908310860052001F0CEFCB1
:100E000000BF8021244801F095FB0028F9D001F0B3
:100E1000EBFC00202149088033E021491F4A128859
:100E200031F8120000F0F5FA1E4A1C490988091D24
:100E300022F8110019490988091D32F81100FFF73D
:100E4000AEFB06460022184BFFF731FB0446174A5B
:100E5000174BFFF7B4FA804642460B461548164931
:100E6000FFF725FB8246FFF7C0FB81B2134A0B4810
:100E70000088001D22F8101008480088401C07490F
:100E80000880064800880428C7DBBDE8F09F000002
:100E90009481214200802142003801407C000020E2
:100EA0009C000020E400002000005940A4703D0A8E
:100EB000D7A3C03F14AE47E17A143840F4000020B5
:100EC0000120124908601248006878B91048001DD6
:100ED000006828B90F480068401C0E49086014E0FB
:100EE0000C480068401E0B4908600EE00848001DD1
:100EF000006828B907480068401E0649086004E0F9
:100F000004480068401C034908607047140401400D
:100F1000008121426C000020022013490860134820
:100F2000006801280FD11148001F006828B9104837
:100F30000068401C0E49086014E00D480068401E1F
:100F40000B4908600EE00948001F006828B90848EE
:100F50000068401E0649086004E005480068401C1F
:100F600003490860704700001404014004812142D5
:100F70006C00002010B5402000F056F8F8B1402079
:100F8000264908602648006801280FD12448001D22
:100F9000006828B923480068401C2249086014E012
:100FA00020480068401E1F4908600EE01C48001DD4
:100FB000006828B91B480068401E1A49086004E010
:100FC00018480068401C17490860802000F02CF881
:100FD00018B38020114908601148001D006870B9DD
:100FE0000F48006828B90F480068401C0D49086088
:100FF00013E00C480068401E0A4908600DE00848EC
:10100000006828B907480068401E0649086004E0E7
:1010100004480068401C0349086010BD14040140E6
:101020001801214270000020014600200022074BD9
:101030001B6803EA0102054B14331B680B4013B114
:101040000AB1012000E000207047000000040140C8
:10105000002123498279002A3AD00A46126803689F
:101060009A430B461A600A1D126803689A430B1DC7
:101070001A60027911440A6803681A430A60184A20
:101080000832126803689A43154B08331A601A1D18
:10109000126803689A43124B0C331A604279102A83
:1010A0000ED11A1F126803681A430D4B08331A60D9
:1010B0001A1D126803681A43094B0C331A600DE0BD
:1010C0000749427911440A6803681A430A6005E037
:1010D000027911440A6803689A430A607047000065
:1010E0000004014010B500F007F800F03DF800F0F2
:1010F00073F800F0A7F810BD1FB50121084600F0F5
:10110000B1FC0121082000F0ADFC0120ADF80C007D
:1011100048208DF80F0003A9124800F0EBF80021D9
:10112000012000F0C7F80120019000208DF8080090
:1011300010208DF8090001208DF80A0001A8FFF7A2
:1011400087FF06208DF8000001208DF801000020A7
:101150008DF8020001208DF80300684600F0BCFB0A
:101160001FBD0000000C01401FB50121084600F022
:1011700079FC0121082000F075FC0220ADF80C007C
:1011800048208DF80F0003A9124800F0B3F80121A0
:10119000084600F08FF80220019000208DF808002A
:1011A00010208DF8090001208DF80A0001A8FFF732
:1011B0004FFF07208DF8000001208DF8010002206C
:1011C0008DF8020001208DF80300684600F084FBD2
:1011D0001FBD0000000C01401FB50121084600F0B2
:1011E00041FC0121042000F03DFC4020ADF80C0042
:1011F00048208DF80F0003A9114800F07BF8062164
:10120000002000F057F84020019000208DF80800E1
:1012100010208DF8090001208DF80A0001A8FFF7C1
:1012200017FF17208DF8000001208DF801008DF8C0
:1012300002008DF80300684600F04EFB1FBD000061
:10124000000801401FB50121084600F00BFC0121F8
:10125000042000F007FC8020ADF80C0048208DF839
:101260000F0003A9124800F045F80721002000F004
:1012700021F88020019000208DF8080010208DF8C2
:10128000090001208DF80A0001A8FFF7E1FE1720F0
:101290008DF8000001208DF8010003208DF8020078
:1012A00001208DF80300684600F016FB1FBD00000A
:1012B0000008014030B500228B071C0F0F2303FAF2
:1012C00004F20B4B8C1053F824309343084C8D10D0
:1012D00044F8253023468C1053F824308C07240F13
:1012E00000FA04F42343024C8D1044F8253030BD3D
:1012F000080001402DE9F0410246002500260020AB
:1013000000230024002791F803C00CF00F0591F88A
:1013100003C00CF0100CBCF1000F03D091F802C018
:101320004CEA050591F800C0BCF1000F31D01468FB
:1013300000202BE04FF0010C0CFA00F3B1F800C0D4
:101340000CEA03069E4220D183004FF00F0C0CFAEA
:1013500003F7BC4305FA03FC4CEA040491F803C00C
:10136000BCF1280F06D14FF0010C0CFA00FCC2F8BA
:1013700014C00AE091F803C0BCF1480F05D14FF04A
:10138000010C0CFA00FCC2F810C0401C0828D1D394
:101390001460B1F800C0BCF1FF0F34DD54680020C8
:1013A0002EE000F1080C4FF0010808FA0CF3B1F838
:1013B00000C00CEA03069E4221D183004FF00F0CBF
:1013C0000CFA03F7BC4305FA03FC4CEA040491F859
:1013D00003C0BCF1280F05D100F1080C08FA0CF885
:1013E000C2F8148091F803C0BCF1480F07D100F196
:1013F000080C4FF0010808FA0CF8C2F81080401CE5
:101400000828CED35460BDE8F08141617047016186
:10141000704702464FF4A57002FB00F1C81701EBBC
:101420001050C0F30F30704700BFFEE72DE9F05FAA
:1014300004460D46281B23490860234800680968B4
:101440000844214908601F490968204A1268881A1F
:10145000FFF79CF881461E4801684846FEF7DCFE0F
:10146000074619480068FFF791F883461948016854
:101470005846FEF7D1FE814612480068FFF786F80D
:101480008346154801685846FEF7C6FE824649461F
:10149000FEF76AFE80463946FEF766FE0646FFF70F
:1014A0008BF80E4908600E480068096808440C492A
:1014B0000860044800680549086009480068BDE8FC
:1014C000F09F000048000020540000205000002041
:1014D00028000020240000202000002058000020C8
:1014E0004C0000202DE9FC5F04460D46281B2149D5
:1014F00008600968204A1268881AFFF747F8824690
:101500001E4801685046FEF787FE80461C4800686A
:10151000FFF73CF800901B4801680098FEF77CFE3E
:10152000824614480068FFF731F8009016480168B9
:101530000098FEF771FE83465146FEF715FE814680
:101540004146FEF711FE074610480068FFF71EF8F7
:1015500039460190FEF708FE0646FFF72DF80B49C5
:101560000860044800680449086008480068BDE84D
:10157000FC9F00005C00002064000020340000207C
:1015800068000020300000202C00002060000020B7
:1015900008B50121402000F065FA4020ADF80000B8
:1015A00010208DF8030003208DF8020069460448DE
:1015B000FFF7A0FE40210248FFF729FF08BD000009
:1015C0000018014000BFFEE708B50121042000F02B
:1015D00049FA0F20ADF8000018208DF80300032011
:1015E0008DF8020069460248FFF784FE08BD00003E
:1015F0000008014010B5FFF7E7FF002141F61F404A
:1016000000F0ACF910BD70471CB511A103C9CDE9BC
:101610000001082000F030FB05226946302000F070
:1016200025F905226946102000F084F8002406E020
:101630001DF80400A52800D003E0601CC4B2052CEE
:10164000F6DB00BF052C01D001201CBD0020FCE70B
:10165000A5A5A5A5A500000000B587B001214FF400
:10166000847000F0FFF94FF48050ADF8180010209E
:101670008DF81B0003208DF81A0006A92848FFF7F3
:1016800039FE4FF480512648FFF7C1FEC020ADF867
:10169000180006A92348FFF72DFE4FF48070ADF81F
:1016A000180028208DF81B0006A91E48FFF722FE0F
:1016B0004FF4E0711B48FFF7A8FE00F069FA002123
:1016C000194800F0EDFA0020ADF804004FF48270E4
:1016D000ADF806000020ADF80800ADF80A00ADF83E
:1016E0000C004FF40070ADF80E001820ADF810009B
:1016F0000020ADF812000720ADF8140001A90A4837
:1017000000F0E8FA0121084800F0CAFA0020074971
:10171000086001200649C1F89C0107B000BD000027
:10172000000C014000200140003800409801244294
:10173000000024422DE9F04107460D4616460020E0
:101740000A490860384600F06DFA8046002405E03A
:10175000FF2000F067FA2855601CC4B2B442F7DBE2
:101760000120024908604046BDE8F0819C01244206
:1017700070B50446002007490860204600F052FA80
:10178000FF2000F04FFA054601200349C1F89C01F3
:10179000284670BD9C0124420000244210B5002060
:1017A0001449086005221449302000F05FF8052232
:1017B00012492A2000F05AF80121212000F074F883
:1017C0000121222000F070F81A21242000F06CF88A
:1017D0000021252000F068F80F21262000F064F891
:1017E0000E21202000F060F801200549C1F8980181
:1017F00010BD000098012442102900081529000896
:101800000000244270B50546102000F035FA002093
:101810001449086020222946A02000F027F8012062
:101820001149C1F8980100BF0E48783800680028B7
:10183000FAD10720FFF79CFF04462146272000F03D
:1018400033F804F0100028B1FF21E12000F02CF85B
:10185000102070BD04F0200008B12020F9E7FF201F
:10186000F7E7000098012442000024422DE9F041EE
:1018700007460C46154600200A490860384600F025
:10188000D1F98046002605E014F8010B00F0CAF9F2
:10189000701CC6B2AE42F7DB012002490860404628
:1018A000BDE8F0819C01244270B505460C4600203D
:1018B00007490860284600F0B5F90646204600F0C2
:1018C000B1F901200349C1F89C01304670BD000008
:1018D0009C0124420000244270B5002100230F2205
:1018E000C47804B3154C246804F4E064C4F5E064DF
:1018F000210AC1F10403CA40447804FA03F1847850
:101900001440214309010E4C0678A155047804F0D7
:101910001F050124AC4005786D11AD0005F1E025EF
:10192000C5F8004109E0047804F01F050124AC402B
:10193000044D0678761145F8264070BD0CED00E0A8
:1019400000E400E080E100E002490143024A116046
:10195000704700000000FA050CED00E030B587B0DC
:1019600005460C460121082000F06CF8ADF8145033
:10197000ADF810400020ADF81600ADF8120004A933
:10198000204800F0F9FC6020ADF800000120ADF81F
:1019900002000020ADF8080069461A4800F088FBF4
:1019A0000821184800F0D0FB6946164800F0D6FB25
:1019B0000821144800F024FC6946124800F02EFC6F
:1019C0000821104800F07AFC69460E4800F080FCBF
:1019D00008210C4800F0BAFC01210A4800F041FB44
:1019E0000021084800F0BFFC0021064800F0BDFCC3
:1019F0000021044800F0BBFC0021024800F0B9FCC3
:101A000007B030BD000C00407047000001460020C8
:101A1000034A506820F4404008435060704700007B
:101A20000010024029B1064A52690243044B5A6130
:101A300004E0034A52698243014B5A617047000037
:101A40000010024029B1064AD2690243044BDA6110
:101A500004E0034AD2698243014BDA617047000017
:101A60000010024029B1064A92690243044B9A6170
:101A700004E0034A92698243014B9A617047000077
:101A80000010024030B500210022002400232D4D1B
:101A90006D6805F00C0121B1042905D0082923D176
:101AA00005E0294D056022E0274D05601FE0254D2A
:101AB0006D6805F47012234D6D6805F480340225BD
:101AC00005EB92421CB9214D554305600BE01D4DBD
:101AD0006D6805F400351DB11C4D5543056002E0ED
:101AE000194D5543056002E0174D056000BF00BF6A
:101AF000144D6D6805F0F0010909154D6B5C056822
:101B0000DD4045600F4D6D6805F4E061090A104D38
:101B10006B5C4568DD4085600A4D6D6805F4605179
:101B2000C90A0B4D6B5C4568DD40C560054D6D68AD
:101B300005F44041890B074D6B5CC568B5FBF3F5B7
:101B4000056130BD0010024000127A0000093D001E
:101B5000BE000020CE0000200146022902D0032949
:101B60000ED106E0084A128810B20022064B1A6015
:101B700008E0064A128810B20022044B1A6001E005
:101B8000002000BF00BF70476C00002070000020E4
:101B900000B587B001210820FFF764FF0121880309
:101BA000FFF750FF4FF46040ADF8180018208DF893
:101BB0001B0003208DF81A0006A91848FFF79AFBAE
:101BC0004FF460411548FFF722FC0020ADF80400F7
:101BD0004FF48270ADF806000020ADF80800022036
:101BE000ADF80A000120ADF80C004002ADF80E007F
:101BF0003820ADF810000020ADF812000720ADF835
:101C0000140001A9064800F065F80121044800F01D
:101C100047F8FF2000F006F807B000BD000C0140B7
:101C20000038004070B50546002405E0601CC4B2D1
:101C3000C82C01DD002070BD02210E4800F03CF8E8
:101C40000028F3D029460B4800F042F8002405E0B4
:101C5000601CC4B2C82C01DD0020ECE7012105485E
:101C600000F02AF80028F3D0024800F02EF8C0B2A5
:101C7000E1E700000038004010B50446074800883E
:101C80004FF6C77108400549088008460088204380
:101C900008800121014800F003F810BD0038004021
:101CA00021B1028842F04002028004E002884FF62F
:101CB000BF731A40028070470246002013890B4010
:101CC0000BB1012000E00020704701468889704771
:101CD0008181704710B50022028802F441520B88BE
:101CE0004C8823438C882343CC8823430C8923438B
:101CF0004C8923438C892343CC8923431A43028094
:101D0000838B4FF2FF74234083830B8A038210BDC1
:101D1000704710B500F002F810BD00000CB50020AF
:101D2000019000903348006840F4803031490860E9
:101D300000BF3048006800F4003000900198401C5B
:101D40000190009818B90198B0F5A06FF1D1294819
:101D5000006800F4003010B10120009001E0002084
:101D600000900098012843D12348006840F01000FB
:101D7000214908600846006820F003000860084612
:101D8000006840F0020008601A484068194948603D
:101D90000846406848600846406840F480604860F3
:101DA0000846406820F47C1048600846406840F4CB
:101DB000E81048600846006840F08070086000BF86
:101DC0000C48006800F000700028F9D0094840680D
:101DD00020F00300074948600846406840F00200D0
:101DE000486000BF0348406800F00C000828F9D1A3
:101DF0000CBD00000010024000200240002808DA5C
:101E00004FF4E151084A118000F5E151121D118093
:101E100008E04FF4E151044A121D1180C0F5E15170
:101E2000121F1180704700003C0C0040002808DAA7
:101E30004FF4E151084A118000F5E151121F118061
:101E400008E04FF4E151044A121F1180C0F5E1513E
:101E5000121D118070470000380C0040042808D182
:101E60004FF0E021096941F004014FF0E0221161D7
:101E700007E04FF0E021096921F004014FF0E02272
:101E8000116170477047000010B51348006840F0BA
:101E900001001149086008464068104908400E4991
:101EA0004860084600680E4908400B49086008462B
:101EB000006820F4802008600846406820F4FE0096
:101EC00048604FF41F008860FFF723FF4FF0006069
:101ED0000449086010BD0000001002400000FFF837
:101EE000FFFFF6FE08ED00E01FB50121C802FFF775
:101EF000B9FD41F28730ADF808008F20ADF804003D
:101F00000020ADF80A00ADF806008DF80C0001A91C
:101F10000D4800F031FA012211460B4800F0BEF8DE
:101F200019208DF8000000208DF8010003208DF8A5
:101F3000020001208DF803006846FFF7CDFC012167
:101F4000014800F08EF81FBD002C01402DE9FC5F18
:101F50000121344800F091F8002861D0FEF7F4FE2A
:101F600000F0ECFB3048FFF74DFC30494888FEF7A5
:101F700016FB064600222E4BFEF721FA04460D46BC
:101F80002C480068FEF750FB804622462B46FEF7A1
:101F90001CFA82460022284BFEF789FACDE900019F
:101FA000FEF755FB2549086008460068FEF73CFB34
:101FB00006460022224BFEF708FA80464FF03332E5
:101FC000204BFEF774FA0446FEF70FFB1E4908602B
:101FD0000220FFF7C1FD1D4908600320FFF7BCFD8B
:101FE0001B4908601848016818480068FFF71EFA86
:101FF000184908601448016815480068FFF772FA2C
:102000001549086000F066FB12480068FFF7F6FE0D
:1020100011480068FFF70AFF0121024800F01EF88E
:10202000BDE8FC9F002C014004010020F4000020CA
:10203000000034409800002000005440940000202C
:10204000000059403333FB3F8C0000207400002017
:10205000780000208400002088000020CA4302820B
:10206000704721B1028842F00102028004E0028838
:102070004FF6FE731A400280704730B502460020CA
:1020800000230024158A05EA0103958905EA010465
:1020900013B10CB1012000E0002030BD1AB18389DA
:1020A0000B43838102E083898B4383817047000067
:1020B00070B5002400220023058C4FF6FE763540D3
:1020C0000584028C8388048B4FF68F752C40B51ED7
:1020D0002C400D882C43751E2A400D892A434D88BB
:1020E0002A43144DA8420BD0134DA84208D0134DDB
:1020F000A84205D0124DA84202D0124DA84213D1D9
:102100004FF6F7752A404D892A434FF6FB752A4052
:102110008D882A434FF6FF652B404FF6FF552B4025
:102120008D892B43CD892B4383800483CD8885867D
:10213000028470BD002C0140003401400040014089
:1021400000440140004801400A460021018B4FF63F
:10215000F7731940114301837047000070B50024E4
:1021600000220023058C4FF6EF7635400584028C63
:102170008388048B48F6FF752C404FF6FF452C40B2
:102180000D884FF6FF7606EA05252C434FF6DF75DE
:102190002A400D8906EA05152A434D8806EA0515E9
:1021A0002A43154DA84202D0144DA8421DD14FF626
:1021B0007F752A404D894FF6FF7606EA05152A43BA
:1021C0004FF6BF752A408D8806EA05152A434FF65B
:1021D000FF352B404FF2FF752B408D8906EA8505B0
:1021E0002B43CD8906EA85052B4383800483CD8864
:1021F0000587028470BD0000002C014000340140BE
:102200000A460021018B4FF2FF7319404FF6FF730E
:1022100003EA0223194301837047000070B50024CC
:1022200000220023058C4FF6FF6635400584028CA2
:102230008388848B4FF68F752C404FF6FC752C40AD
:102240000D882C434FF6FF552A400D894FF6FF7637
:1022500006EA05252A434D8806EA05252A43154D39
:10226000A84202D0144DA8421DD14FF2FF752A405A
:102270004D894FF6FF7606EA05252A434FF6FF35CE
:102280002A408D8806EA05252A434EF6FF752B4025
:102290004DF6FF752B408D8906EA05152B43CD8938
:1022A00006EA05152B4383808483CD8885870284C5
:1022B00070BD0000002C0140003401400A4600219E
:1022C000818B4FF6F77319401143818370470000EB
:1022D00070B5002200230024058C4EF6FF763540B1
:1022E0000584038C8488828B48F6FF752A404FF65C
:1022F000FF452A400D884FF6FF7606EA05252A435A
:102300004DF6FF752B400D8906EA05352B434D88A8
:1023100006EA05352B430B4DA84202D00A4DA842D0
:1023200008D14BF6FF752C408D894FF6FF7606EAF3
:1023300085152C4384808283CD88A0F84050038487
:1023400070BD0000002C0140003401400A4600210D
:10235000818B4FF2FF7319404FF6FF7303EA02239C
:102360001943818370478186704701877047818751
:102370007047A0F840107047002202881D4B984219
:102380000ED01D4B98420BD0B0F1804F08D01B4BA4
:10239000984205D01A4B984202D01A4B984204D169
:1023A0004FF68F731A404B881A43174B984207D049
:1023B000164B984204D04FF6FF431A40CB881A437D
:1023C00002808B8883850B8803850A4B98420BD04B
:1023D000094B984208D00E4B984205D00D4B9842BD
:1023E00002D00D4B984201D10B7A038601238382E0
:1023F00070470000002C0140003401400004004000
:1024000000080040000C0040001000400014004094
:1024100000400140004401400048014010B540F236
:1024200025511D4800F093F810B31B4800F04AF9FD
:10243000C4B21A48008800F40040C8B917480088A0
:1024400000F4804060B10A2C03D0002013490880BA
:1024500020E01248008840F400401049088019E04C
:102460000D2C06D10D48008840F480400B490880AF
:1024700010E00A480088C0F30D0009490C540748D1
:102480000088401C0549088008460088C72801DDEF
:102490000020088010BD000000380140BC00002072
:1024A000FC02002010B540F22551174800F04FF80B
:1024B00038B3154800F006F91449154A12788854C3
:1024C0001348007820B908460078552800D010BD80
:1024D0000F480078401C0E490870084600780B2809
:1024E0000FD10C4809490A6802604A6842600A89AB
:1024F0000281897A8172002005490870012006490D
:10250000087000BFE3E7000000480040BF02002061
:10251000A5000020B4020020A400002021B182897F
:1025200042F40052828104E082894DF6FF731A4022
:102530008281704702460020B1F5007F00D100BFC4
:1025400013880B400BB1012000E00020704770B5EC
:102550000246002400230025002040F66A16B142FE
:1025600000D100BFC1F3421501F01F03012606FA96
:1025700003F3012D02D19689334006E0022D02D1EA
:10258000168A334001E0968A33400C12012606FA7F
:1025900004F41688344013B10CB1012000E000208F
:1025A00070BDF0B50346002400260025002040F64B
:1025B0006A17B94200D100BF1846C1F3421401F0B6
:1025C0001F06012707FA06F5012C01D10C3004E0A3
:1025D000022C01D1103000E014301AB107682F43EB
:1025E000076002E00768AF430760F0BD2DE9F047E0
:1025F00086B005460E460024A24600BFA14600272D
:10260000B08900B100BF2F462C8A4CF6FF70044001
:10261000F08804432C82AC894EF6F3100440B08855
:1026200031890843718908430443AC81AC8A4FF671
:10263000FF400440B0890443AC8201A8FFF722FAAE
:102640001F48874202D1DDF810A001E0DDF80CA0A0
:10265000A88900F4004040B10AEBCA0000EB0A1060
:1026600031684900B0FBF1F807E00AEBCA0000EB63
:102670000A1031688900B0FBF1F86420B8FBF0F073
:1026800004012009642101FB1089A88900F400409D
:1026900040B1322000EBC900B0FBF1F000F00700C0
:1026A000044308E0322000EB09106421B0FBF1F094
:1026B00000F00F0004432C8106B0BDE8F087000055
:1026C0000038014001468888C0F30800704700BF09
:1026D000FEE7000041F6BC300E49096842429142D3
:1026E00002DA41420B4A11600A490968814201DD60
:1026F00008490860084909684242914202DA4142A9
:10270000054A116004490968814201DD02490860F7
:1027100070470000840000208800002002E008C804
:10272000121F08C1002AFAD170477047002001E04B
:1027300001C1121F002AFBD17047000010B5154AD5
:1027400052880A2392FBF3F2092A08DD114A5288C3
:1027500092FBF3F403FB14225A320E4B5A800D4ABB
:1027600052880A2392FBF3F403FB14223032D1B2D5
:10277000084A528892FBF3F23032D0B20422064B60
:102780001A701A46507091700D22DA700A221A716E
:1027900010BD0000F4000020040100200146114A91
:1027A00012884A434FF0E0235A6100229A611A4688
:1027B000126942F001021A6100BF4FF0E022106975
:1027C00000F001021AB100F48032002AF5D04FF077
:1027D000E022126922F001024FF0E0231A61002288
:1027E0009A617047B600002010B50022002014E066
:1027F000002107E00A4B03EBC10333F810301A4401
:102800004B1CD9B23229F5DB322392FBF3F3054C92
:1028100024F810300022431CD8B20428E8DB10BD95
:10282000240100209C000020FEF76CFA4FF4A06009
:10283000FFF78AF84FF4E13000F01AF8FEF7A8FE2F
:10284000FFF7A6F9FEF708FF00BFFEF7DDFE002840
:10285000FBD1FEF747FCFEF7CDFEFDF7EBFFFEF7E1
:1028600035F8FEF79BFFFFF73FFB00BFFEE70000D8
:1028700010B586B00446012144F20400FFF7F2F8D7
:102880004FF40070ADF8140003208DF816001820E6
:102890008DF8170005A91C48FEF72CFD4FF4806049
:1028A000ADF8140004208DF8170005A91648FEF7AE
:1028B00021FD25208DF8000003208DF801008DF802
:1028C000020001208DF803006846FFF705F8019427
:1028D0000020ADF80800ADF80A00ADF80C00ADF826
:1028E00010000C20ADF80E0001A90848FFF77EFE8D
:1028F000012240F225510548FFF753FE012103480C
:10290000FFF70CFE06B010BD000801400038014082
:10291000AABBCCDDEEAABBCCDDEE00003C29000852
:1029200000000020D40000001C270008102A000826
:10293000D4000020F40600002C27000800A24A045E
:10294000000000000000000001020304060708095F
:10295000000096430000803F000000000000A041FE
:1029600000000000000048420000A04100000000FC
:1029700000004842000000000000000000000000CD
:102980000000000000000000000000000000000047
:102990000000000000000000000000000000000037
:1029A0000000000000000000000000000000000027
:1029B0000000000000000000000000000000000017
:1029C0000000000000000000000000000000000007
:1029D000000000009A99D93F0000000000000000AC
:1029E0000000FF00AA0052000000000000000000EC
:1029F00000000000000000000000000000000102D4
:102A00000304010203040607080902040608000083
:0400000508000145A9
:00000001FF
