:020000040800F2
:10000000B8050020450100085B1100087B0F0008BF
:1000100019110008E1090008571D00080000000040
:10002000000000000000000000000000151400089F
:10003000E5090008000000008D120008891500087D
:100040005F0100085F0100085F0100085F01000810
:100050005F0100085F0100082D0A0008850A0008FA
:100060005F0100085F0100085F0100085F010008F0
:100070005F0100085F0100085F0100085F010008E0
:100080005F0100085F0100085F0100085F010008D0
:100090005F0100085F0100085F010008E10A000835
:1000A0005F010008511600085F0100085F010008A9
:1000B0005F0100085F0100085F0100085F010008A0
:1000C0005F0100085F0100085F0100085F01000890
:1000D0005F010008AD1A00085F010008351B000829
:1000E0005F0100085F0100085F0100085F01000870
:1000F0005F0100085F0100085F0100085F01000860
:100100005F0100085F0100085F0100085F0100084F
:100110005F0100085F0100085F0100085F0100083F
:100120005F0100085F0100085F0100085F0100082F
:10013000DFF80CD000F044FB004800471D22000807
:10014000B80500200648804706480047FEE7FEE75E
:10015000FEE7FEE7FEE7FEE7FEE7FEE7FEE7FEE777
:100160008D15000831010008F0B480EA0102D40FB7
:100170004200B2EB410F02D20246084611464A0045
:1001800042D0C30DDDB2C1F3C752AD1A202D35DA0E
:10019000C1F3160141F4000204B15242C5F1200638
:1001A00002FA06F12A411044B3EBD05F23D0C4B168
:1001B000012DA0EBC35009DCF0BC4FF0004202EA75
:1001C000C352DBB200F5000000F06FBA400000F14E
:1001D000807000EBC350A0F1807040EAD1704900FC
:1001E00009E0490841EAC071A0EBC35000F50000E6
:1001F000400800EBC350F0BC00F04EBA614201224F
:1002000002EB4101001BF6E7F0BC704781F00041B2
:10021000AAE780F00040A7E780EA010210B502F0EB
:100220000043400022D04A001FD0010E01EB1261B2
:10023000C0F35600C2F3560240F4000042F400023C
:10024000A0FB022000047F39140400D0401C50EAB7
:10025000124001D44000491EC2B20C0604EBD0107B
:10026000401C4008802A02D003E0002010BD20F08E
:100270000100002900DA0020184310BD2DE9FE4FCF
:10028000804681EA0300C00F0C46009021F0004137
:1002900023F00045B8EB0200A94105D240462146B3
:1002A00090461C460B46024623F00040104347D0C0
:1002B000270DC7F30A00C3F30A510290401A0190B8
:1002C00040286BDAC3F3130040F4801B0098924679
:1002D00020B10023D2EB030A63EB0B0B01985946C4
:1002E000C0F14002504600F0B6F906460D465046B1
:1002F0005946019A00F0BEF910EB08006141002454
:1003000087EA115284EAE7731A4340D0009A62B335
:10031000019A012A4FEA075215DC001B61EB02012A
:100320004FF0004202EA0752CDE90042001C41F5BD
:10033000801132462B4600F0F5F903B0BDE8F08F8E
:1003400040462146F9E7001B61EB0201001C41F524
:10035000801300185B412018A2F5001747EB03013A
:1003600040EAD570B6196D4111E06D084FEA3606C6
:1003700045EAC0754FEA0752001B61EB0201001C01
:1003800041F5801149084FEA3000001951413246C9
:100390002B4603B0BDE8F04F00F0B5B9009801223C
:1003A00040000023D0EB020263EBE073009821468B
:1003B0004FEAE074B8EB000061EB0401E9E783F079
:1003C00000435BE781F0004158E72DE9FE4F81EAE9
:1003D000030404F0004421F0004100944FF0000BAE
:1003E00023F0004350EA01045ED052EA03045BD0DC
:1003F000C3F30A54C1F30A552C44A4F2F334019414
:10040000A0FB0254C1F3130141F48011C3F31303A1
:1004100043F4801301FB024400FB034E840A970A55
:1004200044EA815447EA8357A4FB076802958D0A82
:1004300005FB07854FEA932C04FB0C542705029D0E
:100440004FEA065847EA1637B5EB08056EEB070C7E
:10045000870E920E47EA811742EA8312A7FB020138
:10046000B6EB0B0164EB00042B0D43EA0C335E1872
:1004700044EB1C50DA465146E7FB0201C5F3130476
:100480004FEA0B3343EA14534FEA0432019C43EA28
:100490000603A4F10C040294009CCDE900B400F022
:1004A00041F903B0BDE8F08F00200146F9E72DE9DE
:1004B000F04D81EA030404F0004B21F0004514469E
:1004C0004FF0000A23F0004150EA050220D054EA20
:1004D00001021DD0C5F30A570246C5F31303C1F349
:1004E0001300C1F30A5640F4801543F48013A7EBC0
:1004F0000608101BD64608F2FD3873EB050002D340
:1005000008F1010801E092185B41B8F1000F03DA2D
:1005100000200146BDE8F08D00204FF48011064612
:1005200084460EE0171B73EB050705D3121B63EB24
:10053000050306434CEA010C49084FEA30009218C3
:100540005B4150EA0107EDD152EA030012D082EA82
:10055000040083EA0501084305D0101BAB4106D215
:100560000122002306E000224FF0004302E06FF07A
:10057000010253101AEB06004CEB085110EB0A0075
:1005800041EB0B01BDE8F04D00F0BDB8C10F80EAB2
:10059000E0700844CA079623002100F086B80EB523
:1005A000C10F80EAE0700844CA07002140F23343DB
:1005B0008DE80E000A460B4600F0B4F803B000BD0B
:1005C00000F0004220F00040C10DC0F3160040F4DE
:1005D00000007F2901DA00207047962903DCC1F171
:1005E0009601C84001E096398840002AF4D0404284
:1005F000704701F0004330B421F0004150EA01029D
:1006000006D00A0DA2F56072C1F31301002A02DCC4
:1006100030BC00207047440F44EAC104C100E01818
:1006200030BC00EBC25000F037B830B50B46014685
:1006300000202022012409E021FA02F59D4205D381
:1006400003FA02F5491B04FA02F52844151EA2F12B
:100650000102F1DC30BD202A04DB203A00FA02F16D
:10066000002070479140C2F1200320FA03F31943A0
:1006700090407047202A06DBCB17203A41FA02F05F
:1006800043EAE07306E041FA02F3D040C2F12002EF
:1006900091400843194670470029A8BF7047401C85
:1006A000490008BF20F00100704710B4B0FA80FC88
:1006B00000FA0CF050EA010404BF10BC704749B1C5
:1006C000CCF1200421FA04F411FA0CF118BF012135
:1006D00021430843A3EB0C01CB1D4FEA00614FEA15
:1006E000102042BF002010BC704700EBC3501044E4
:1006F0000029A4BF10BC7047401C490008BF20F06F
:10070000010010BC704710B5141E73F1000408DA24
:10071000401C41F1000192185B411A4301D120F0C5
:10072000010010BD2DE9F04D92469B4611B1B1FA82
:1007300081F202E0B0FA80F220329046FFF78BFFA0
:1007400004460F4640EA0A0041EA0B0153465A4666
:10075000084313D0114653EA010019D0C8F14002F2
:10076000504600F03FF805460E4650465946424670
:10077000FFF771FF084305D0012004E02046394609
:10078000BDE8F08D0020054346EAE0762C43374370
:100790000A986305E40AA0EB08000022FD0A44EA77
:1007A00047540A3002D500200146E9E70105101937
:1007B0006941DDE9084500196941BDE8F04DA2E74E
:1007C000064C074D06E0E06840F0010394E807009E
:1007D00098471034AC42F6D3FFF7AEFCA8230008CC
:1007E000C8230008202A04DB203A21FA02F0002165
:1007F000704721FA02F3D040C2F120029140084331
:1008000019467047CA430260704721B1826842F0BE
:100810000102826003E0826822F001028260704778
:1008200010B504461248844208D10121401500F059
:100830005BFD0021601500F057FD17E00D48844274
:1008400008D10121001500F04FFD0021201500F016
:100850004BFD0BE00848844208D10121C80300F099
:1008600043FD00214FF4004000F03EFD10BD0000AC
:100870000024014000280140003C014001460020C6
:100880008A6802F004020AB1012000E000207047EB
:10089000014600208A6802F008020AB1012000E047
:1008A0000020704710B50023CBB21AB144681C4336
:1008B000446002E044689C43446010BD30B5024689
:1008C0000020002350680F4C20400D790C6844EA4A
:1008D00005242043506090680B4C2040D1E902541D
:1008E0002C434D7944EA450420439060D06A20F4BB
:1008F00070000C7C641EE4B2234340EA0350D062D3
:1009000030BD0000FFFEF0FFFDF7F1FF816841F010
:1009100008018160704721B1826842F4A0028260C0
:1009200003E0826822F4A00282607047816841F08F
:10093000040181607047000000B587B001214FF4C9
:10094000047000F0C1FC4FF4004000F0A1FC012055
:10095000ADF8040000208DF8070001A91E4800F042
:100960007FFA1E48FFF75CFF002002908DF80C0014
:100970008DF80D004FF460200490002005900120B8
:100980008DF8180000224FF408711448FFF78AFF11
:1009900002211248FFF736FF02A91048FFF78EFF29
:1009A00001210E48FFF731FF0C48FFF7AFFF00BFF2
:1009B0000A48FFF76DFF0028FAD10848FFF7B6FF95
:1009C00000BF0648FFF75AFF0028FAD1012103486B
:1009D000FFF7A1FF07B000BD001001400024014057
:1009E00000BFFEE77047000010B56FF0040000F094
:1009F000B7FD0A4800680A49B0FBF1F009490870E0
:100A00000846007800EB4001C1EBC0104FF6FF71C3
:100A100001EAC0000449088010BD00000000002069
:100A200000127A0084000020860000200120124974
:100A300008601248006878B91048001D006828B99D
:100A40000F480068401C0E49086014E00C4800681C
:100A5000401E0B4908600EE00848001D006828B9D8
:100A600007480068401E0649086004E00448006822
:100A7000401C034908607047140401400081214272
:100A80005000002002201349086013480068012824
:100A90000FD11148001F006828B910480068401C99
:100AA0000E49086014E00D480068401E0B490860BC
:100AB0000EE00948001F006828B908480068401E79
:100AC0000649086004E005480068401C03490860C6
:100AD00070470000140401400481214250000020AE
:100AE00010B5402000F056F8F8B1402026490860C3
:100AF0002648006801280FD12448001D006828B945
:100B000023480068401C2249086014E0204800681F
:100B1000401E1F4908600EE01C48001D006828B9EF
:100B20001B480068401E1A49086004E01848006825
:100B3000401C17490860802000F02CF818B3802072
:100B4000114908601148001D006870B90F4800681D
:100B500028B90F480068401C0D49086013E00C4894
:100B60000068401E0A4908600DE00848006828B97E
:100B700007480068401E0649086004E00448006811
:100B8000401C0349086010BD1404014018012142B3
:100B900054000020014600200022074B1B6803EA96
:100BA0000102054B14331B680B4013B10AB101203D
:100BB00000E00020704700000004014000212349AC
:100BC0008279002A3AD00A46126803689A430B4693
:100BD0001A600A1D126803689A430B1D1A60027995
:100BE00011440A6803681A430A60184A08321268F6
:100BF00003689A43154B08331A601A1D126803687C
:100C00009A43124B0C331A604279102A0ED11A1FE4
:100C1000126803681A430D4B08331A601A1D1268D4
:100C200003681A43094B0C331A600DE007494279F7
:100C300011440A6803681A430A6005E00279114406
:100C40000A6803689A430A60704700000004014084
:100C500010B500F007F800F03DF800F073F800F070
:100C6000A7F810BD1FB50121084600F02DFB01219A
:100C7000082000F029FB0120ADF80C0048208DF879
:100C80000F0003A9124800F0EBF80021012000F04A
:100C9000C7F80120019000208DF8080010208DF881
:100CA000090001208DF80A0001A8FFF787FF062040
:100CB0008DF8000001208DF8010000208DF8020061
:100CC00001208DF80300684600F048FA1FBD0000BF
:100CD000000C01401FB50121084600F0F5FA012182
:100CE000082000F0F1FA0220ADF80C0048208DF841
:100CF0000F0003A9124800F0B3F80121084600F0E4
:100D00008FF80220019000208DF8080010208DF847
:100D1000090001208DF80A0001A8FFF74FFF072006
:100D20008DF8000001208DF8010002208DF80200EE
:100D300001208DF80300684600F010FA1FBD000086
:100D4000000C01401FB50121084600F0BDFA012149
:100D5000042000F0B9FA4020ADF80C0048208DF8CE
:100D60000F0003A9114800F07BF80621002000F0D5
:100D700057F84020019000208DF8080010208DF8D1
:100D8000090001208DF80A0001A8FFF717FF1720BE
:100D90008DF8000001208DF801008DF802008DF81B
:100DA0000300684600F0DAF91FBD000000080140AA
:100DB0001FB50121084600F087FA0121042000F048
:100DC00083FA8020ADF80C0048208DF80F0003A9AD
:100DD000124800F045F80721002000F021F880209B
:100DE000019000208DF8080010208DF809000120E6
:100DF0008DF80A0001A8FFF7E1FE17208DF800002A
:100E000001208DF8010003208DF8020001208DF8EB
:100E10000300684600F0A2F91FBD00000008014071
:100E200030B500228B071C0F0F2303FA04F20B4B83
:100E30008C1053F824309343084C8D1044F825301F
:100E400023468C1053F824308C07240F00FA04F446
:100E50002343024C8D1044F8253030BD080001407A
:100E60002DE9F04102460025002600200023002441
:100E7000002791F803C00CF00F0591F803C00CF0A7
:100E8000100CBCF1000F03D091F802C04CEA05052C
:100E900091F800C0BCF1000F31D0146800202BE0A5
:100EA0004FF0010C0CFA00F3B1F800C00CEA030695
:100EB0009E4220D183004FF00F0C0CFA03F7BC4385
:100EC00005FA03FC4CEA040491F803C0BCF1280FB6
:100ED00006D14FF0010C0CFA00FCC2F814C00AE075
:100EE00091F803C0BCF1480F05D14FF0010C0CFA8A
:100EF00000FCC2F810C0401C0828D1D31460B1F81F
:100F000000C0BCF1FF0F34DD546800202EE000F17A
:100F1000080C4FF0010808FA0CF3B1F800C00CEA15
:100F200003069E4221D183004FF00F0C0CFA03F709
:100F3000BC4305FA03FC4CEA040491F803C0BCF17D
:100F4000280F05D100F1080C08FA0CF8C2F814803B
:100F500091F803C0BCF1480F07D100F1080C4FF025
:100F6000010808FA0CF8C2F81080401C0828CED3FB
:100F70005460BDE8F0810161704700BFFEE70000EA
:100F80002DE9F05F04460D46281B234908602348DD
:100F9000006809680844214908601F490968204A17
:100FA0001268881AFFF7F2FA81461E48016848461F
:100FB000FFF732F9074619480068FFF7E7FA83465A
:100FC000194801685846FFF727F98146124800681A
:100FD000FFF7DCFA8346154801685846FFF71CF90D
:100FE00082464946FFF7C0F880463946FFF7BCF80D
:100FF0000646FFF7E5FA0E4908600E4800680968E2
:1010000008440C490860044800680549086009481C
:101010000068BDE8F09F00002C0000203800002090
:10102000340000201C0000201800002014000020C4
:101030003C000020300000202DE9FC5F04460D46F6
:10104000281B214908600968204A1268881AFFF79E
:101050009DFA82461E4801685046FFF7DDF880463B
:101060001C480068FFF792FA00901B48016800983E
:10107000FFF7D2F8824614480068FFF787FA00901D
:10108000164801680098FFF7C7F883465146FFF7F6
:101090006BF881464146FFF767F80746104800683D
:1010A000FFF774FA39460190FFF75EF80646FFF73E
:1010B00087FA0B490860044800680449086008483A
:1010C0000068BDE8FC9F00004000002048000020B0
:1010D000280000204C0000202400002020000020D8
:1010E0004400002008B50121402000F0EDF8402028
:1010F000ADF8000010208DF8030003208DF80200E9
:1011000069460448FFF7ACFE40210248FFF733FF71
:1011100008BD00000018014000BFFEE708B501212E
:10112000042000F0D1F80F20ADF8000018208DF851
:10113000030003208DF8020069460248FFF790FE85
:1011400008BD00000008014010B5FFF7E7FF0021CF
:1011500041F61F4000F044F810BD704770B5002103
:1011600000230F22C47804B3154C246804F4E0640F
:10117000C4F5E064210AC1F10403CA40447804FACA
:1011800003F184781440214309010E4C0678A155DF
:10119000047804F01F050124AC4005786D11AD0002
:1011A00005F1E025C5F8004109E0047804F01F05C9
:1011B0000124AC40044D0678761145F8264070BDF8
:1011C0000CED00E000E400E080E100E002490143B2
:1011D000024A1160704700000000FA050CED00E0C3
:1011E00030B587B005460C460121082000F05CF8B8
:1011F000ADF81450ADF810400020ADF81600ADF871
:10120000120004A9204800F0FFFB6020ADF80000A8
:101210000120ADF802000020ADF8080069461A4828
:1012200000F08EFA0821184800F0D6FA69461648F0
:1012300000F0DCFA0821144800F02AFB6946124845
:1012400000F034FB0821104800F080FB69460E488E
:1012500000F086FB08210C4800F0C0FB01210A4881
:1012600000F047FA0021084800F0C5FB00210648BD
:1012700000F0C3FB0021044800F0C1FB002102483C
:1012800000F0BFFB07B030BD000C0040704700000D
:1012900001460020034A506820F440400843506053
:1012A000704700000010024029B1064AD26902438B
:1012B000044BDA6104E0034AD2698243014BDA61EC
:1012C000704700000010024029B1064A92690243AB
:1012D000044B9A6104E0034A92698243014B9A618C
:1012E000704700000010024029B1064AD26802434C
:1012F000044BDA6004E0034AD2688243014BDA60AF
:10130000704700000010024030B500210022002488
:1013100000232D4D6D6805F00C0121B1042905D085
:10132000082923D105E0294D056022E0274D0560FD
:101330001FE0254D6D6805F47012234D6D6805F4AE
:101340008034022505EB92421CB9214D55430560BE
:101350000BE01D4D6D6805F400351DB11C4D554366
:10136000056002E0194D5543056002E0174D056028
:1013700000BF00BF144D6D6805F0F0010909154D5F
:101380006B5C0568DD4045600F4D6D6805F4E061FC
:10139000090A104D6B5C4568DD4085600A4D6D683B
:1013A00005F46051C90A0B4D6B5C4568DD40C560B2
:1013B000054D6D6805F44041890B074D6B5CC568B0
:1013C000B5FBF3F5056130BD0010024000127A0054
:1013D00000093D008E0000209E00002001460229E9
:1013E00002D003290ED106E0084A128810B200226A
:1013F000064B1A6008E0064A128810B20022044B1D
:101400001A6001E0002000BF00BF704750000020BC
:1014100054000020704710B500F002F810BD000025
:101420000CB50020019000903348006840F48030F3
:101430003149086000BF3048006800F40030009077
:101440000198401C0190009818B90198B0F5A06F60
:10145000F1D12948006800F4003010B1012000905B
:1014600001E0002000900098012843D12348006843
:1014700040F01000214908600846006820F0030091
:1014800008600846006840F0020008601A4840689A
:10149000194948600846406848600846406840F47A
:1014A000806048600846406820F47C104860084628
:1014B000406840F4E81048600846006840F08070DA
:1014C000086000BF0C48006800F000700028F9D0E8
:1014D0000948406820F00300074948600846406812
:1014E00040F00200486000BF0348406800F00C0074
:1014F0000828F9D10CBD0000001002400020024075
:10150000002808DA4FF4E151084A118000F5E15152
:10151000121D118008E04FF4E151044A121D1180A0
:10152000C0F5E151121F1180704700003C0C0040D3
:10153000002808DA4FF4E151084A118000F5E15122
:10154000121F118008E04FF4E151044A121F11806C
:10155000C0F5E151121D118070470000380C0040A9
:10156000042808D14FF0E021096941F004014FF04F
:10157000E022116107E04FF0E021096921F0040148
:101580004FF0E022116170477047000010B513481A
:10159000006840F0010011490860084640681049A1
:1015A00008400E494860084600680E4908400B494B
:1015B00008600846006820F48020086008464068FB
:1015C00020F4FE0048604FF41F008860FFF723FFFF
:1015D0004FF000600449086010BD00000010024098
:1015E0000000FFF8FFFFF6FE08ED00E01FB5012147
:1015F000C802FFF769FE41F28730ADF808008F207E
:10160000ADF804000020ADF80A00ADF806008DF832
:101610000C0001A90D4800F0F7F9012211460B4812
:1016200000F084F819208DF8000000208DF80100EA
:1016300003208DF8020001208DF803006846FFF7B3
:101640008DFD0121014800F054F81FBD002C014020
:1016500010B501211C4800F058F8002833D00220B2
:10166000FFF7BCFE194908600320FFF7B7FE1849D1
:101670000860084602681548016816A000F092FB51
:10168000142112480068FFF77BFC144908601421FC
:101690000F480068FFF7D0FC1149086000F05EFBBE
:1016A0000E480068FFF72CFF0D480068FFF740FF69
:1016B00000F050FC00200B4908800B490860012114
:1016C000014800F013F810BD002C01405800002024
:1016D0005C00002025642025640D0A006C000020B9
:1016E000700000202404004050000020CA43028201
:1016F000704721B1028842F00102028004E00288B2
:101700004FF6FE731A400280704730B50246002043
:1017100000230024158A05EA0103958905EA0104DE
:1017200013B10CB1012000E0002030BD1AB1838953
:101730000B43838102E083898B43838170470000E0
:1017400070B5002400220023058C4FF6FE7635404C
:101750000584028C8388048B4FF68F752C40B51E50
:101760002C400D882C43751E2A400D892A434D8834
:101770002A43144DA8420BD0134DA84208D0134D54
:10178000A84205D0124DA84202D0124DA84213D152
:101790004FF6F7752A404D892A434FF6FB752A40CC
:1017A0008D882A434FF6FF652B404FF6FF552B409F
:1017B0008D892B43CD892B4383800483CD888586F7
:1017C000028470BD002C0140003401400040014003
:1017D00000440140004801400A460021018B4FF6B9
:1017E000F7731940114301837047000070B500245E
:1017F00000220023058C4FF6EF7635400584028CDD
:101800008388048B48F6FF752C404FF6FF452C402B
:101810000D884FF6FF7606EA05252C434FF6DF7557
:101820002A400D8906EA05152A434D8806EA051562
:101830002A43154DA84202D0144DA8421DD14FF69F
:101840007F752A404D894FF6FF7606EA05152A4333
:101850004FF6BF752A408D8806EA05152A434FF6D4
:10186000FF352B404FF2FF752B408D8906EA850529
:101870002B43CD8906EA85052B4383800483CD88DD
:101880000587028470BD0000002C01400034014037
:101890000A460021018B4FF2FF7319404FF6FF7388
:1018A00003EA0223194301837047000070B5002446
:1018B00000220023058C4FF6FF6635400584028C1C
:1018C0008388848B4FF68F752C404FF6FC752C4027
:1018D0000D882C434FF6FF552A400D894FF6FF76B1
:1018E00006EA05252A434D8806EA05252A43154DB3
:1018F000A84202D0144DA8421DD14FF2FF752A40D4
:101900004D894FF6FF7606EA05252A434FF6FF3547
:101910002A408D8806EA05252A434EF6FF752B409E
:101920004DF6FF752B408D8906EA05152B43CD89B1
:1019300006EA05152B4383808483CD88858702843E
:1019400070BD0000002C0140003401400A46002117
:10195000818B4FF6F7731940114381837047000064
:1019600070B5002200230024058C4EF6FF7635402A
:101970000584038C8488828B48F6FF752A404FF6D5
:10198000FF452A400D884FF6FF7606EA05252A43D3
:101990004DF6FF752B400D8906EA05352B434D8822
:1019A00006EA05352B430B4DA84202D00A4DA8424A
:1019B00008D14BF6FF752C408D894FF6FF7606EA6D
:1019C00085152C4384808283CD88A0F84050038401
:1019D00070BD0000002C0140003401400A46002187
:1019E000818B4FF2FF7319404FF6FF7303EA022316
:1019F00019438183704781867047018770478187CB
:101A00007047A0F840107047002202881D4B984292
:101A10000ED01D4B98420BD0B0F1804F08D01B4B1D
:101A2000984205D01A4B984202D01A4B984204D1E2
:101A30004FF68F731A404B881A43174B984207D0C2
:101A4000164B984204D04FF6FF431A40CB881A43F6
:101A500002808B8883850B8803850A4B98420BD0C4
:101A6000094B984208D00E4B984205D00D4B984236
:101A700002D00D4B984201D10B7A03860123838259
:101A800070470000002C0140003401400004004079
:101A900000080040000C004000100040001400400E
:101AA00000400140004401400048014010B540F2B0
:101AB00025511D4800F08FF810B31B4800F046F97F
:101AC000C4B21A48008800F40040C8B9174800881A
:101AD00000F4804060B10A2C03D000201349088034
:101AE00020E01248008840F400401049088019E0C6
:101AF0000D2C06D10D48008840F480400B49088029
:101B000010E00A480088C0F30D0009490C5407484A
:101B10000088401C0549088008460088C72801DD68
:101B20000020088010BD0000003801408C0000201B
:101B3000EC00002010B540F22551174800F04BF89A
:101B400038B3154800F002F91449154A1278885440
:101B50001348007820B908460078552800D010BDF9
:101B60000F480078401C0E490870084600780B2882
:101B70000FD10C4809490A6802604A6842600A8924
:101B80000281897A81720020054908700120064986
:101B9000087000BFE3E7000000480040AF000020ED
:101BA00075000020A40000207400002001F40072E1
:101BB000B2F5007F00D100BFCA430280704721B157
:101BC000828942F40052828104E082894DF6FF73DB
:101BD0001A408281704770B5024600240023002518
:101BE000002040F66A16B14200D100BFC1F3421591
:101BF00001F01F03012606FA03F3012D02D1968995
:101C0000334006E0022D02D1168A334001E0968A65
:101C100033400C12012606FA04F41688344013B13E
:101C20000CB1012000E0002070BDF0B50346002497
:101C300000260025002040F66A17B94200D100BFF7
:101C40001846C1F3421401F01F06012707FA06F5F2
:101C5000012C01D10C3004E0022C01D1103000E045
:101C600014301AB107682F43076002E00768AF43DA
:101C70000760F0BD2DE9F04786B005460E4600240A
:101C8000A24600BFA1460027B08900B100BF2F4681
:101C90002C8A4CF6FF700440F08804432C82AC89F7
:101CA0004EF6F3100440B088318908437189084327
:101CB0000443AC81AC8A4FF6FF400440B089044332
:101CC000AC8201A8FFF720FB1F48874202D1DDF854
:101CD00010A001E0DDF80CA0A88900F4004040B19C
:101CE0000AEBCA0000EB0A1031684900B0FBF1F8BA
:101CF00007E00AEBCA0000EB0A1031688900B0FB6C
:101D0000F1F86420B8FBF0F004012009642101FB24
:101D10001089A88900F4004040B1322000EBC900CE
:101D2000B0FBF1F000F00700044308E0322000EBC4
:101D300009106421B0FBF1F000F00F0004432C8186
:101D400006B0BDE8F08700000038014001468888F1
:101D5000C0F30800704700BFFEE7000041F6BC304A
:101D60000E4909684242914202DA41420B4A11602F
:101D70000A490968814201DD084908600849096883
:101D80004242914202DA4142054A1160044909681F
:101D9000814201DD02490860704700006C000020AC
:101DA000700000200FB4054B10B503A9044A029837
:101DB00000F018F810BC5DF814FB0000391F000893
:101DC0008800002002E008C8121F08C1002AFAD1CA
:101DD00070477047002001E001C1121F002AFBD1AB
:101DE000704700002DE9FF4F89B09B46044600254F
:101DF00006E025280BD05A460B999047641C6D1CB1
:101E000020780028F5D10DB02846BDE8F08F0027D6
:101E1000B8460122474900E0074314F8013F203B40
:101E200002FA03F00842F7D120782E2819D114F8CD
:101E3000010F47F004072A280ED06FF02F022078F8
:101E4000A0F1300109290CD808EB880102EB41010F
:101E500000EB0108641CF2E70A98641C50F8048B3C
:101E60000A9020780028CED0642808D0692806D0AF
:101E700075281ED05A460B9990476D1C58E00A9958
:101E80004FF00A0901C90A91002802DA40422D21C7
:101E900002E0390504D52B218DF82010012103E043
:101EA000F90704D02021F7E78A4608AE0DE00021AB
:101EB000FAE70A994FF00A0901C90A91F7E749467A
:101EC000FEF7B3FB303106F8011D0028F7D1ADEB6A
:101ED000060000F12009780701D44FF00108C84539
:101EE00002DDA8EB090000E000208046002706E0A4
:101EF00008A85A46C05D0B9990476D1C7F1C57453A
:101F0000F6DB04E030205A460B9990476D1CB8F17F
:101F10000001A8F10108F5DC05E016F8010B5A46AE
:101F20000B9990476D1CB9F10001A9F10109F4DC8E
:101F3000641C65E70928010000BF054A128802F009
:101F40004002002AF9D0C2B2014B1B1D1A80704713
:101F5000003801402DE9F047A348007800287AD0E6
:101F6000A248A3490A6802604A6842600A8902815D
:101F7000897A817200209C4908709D480078552814
:101F800069D19B484078512804D0522864D0532806
:101F90007ED1C4E095498978944AD27841EA0221F9
:101FA00008B2FEF7FCFA80460022924BFEF77FFA59
:101FB00006460022904BFEF708FA0446FEF719FB8E
:101FC0008E49086089490979884A527941EA022193
:101FD00008B2FEF7E4FA80460022864BFEF767FA65
:101FE00006460022844BFEF7F0F90446FEF701FB9B
:101FF000824948607D4989797C4AD27941EA022147
:1020000008B2FEF7CCFA804600227A4BFEF74FFA70
:1020100006460022784BFEF7D8F90446FEF7E9FAA7
:10202000764988607149097A704A527A41EA0221F8
:1020300008B2FEF7B4FA80460022714BFEF737FA79
:10204000064600226F4BFEF719F90446FEF7D1FA57
:102050006D490860C5E0C5E064498978634AD27873
:1020600041EA022108B2FEF79AFA80460022614B4B
:10207000FEF71DFA06460022644BFEF7A6F9044659
:10208000FEF7B7FA6249086058490979574A00E0F3
:10209000A6E0527941EA022108B2FEF780FA8046B2
:1020A0000022544BFEF703FA06460022574BFEF778
:1020B0008CF90446FEF79DFA554948604B498979E9
:1020C0004A4AD27941EA022108B2FEF768FA064686
:1020D0000022484BFEF7EBF9044600224B4BFEF77B
:1020E00074F98046FEF785FA494988603F49097AC4
:1020F0003E4A527A41EA022108B2FEF750FA80467F
:1021000000223F4BFEF7D3F9064600223D4BFEF777
:10211000B5F80446FEF76DFA3B49086061E03349C3
:102120008978324AD27841EA022108B2FEF737FABA
:10213000064600222F4BFEF7BAF904460022354B23
:10214000FEF743F98046FEF754FA33490860274901
:102150000979264A527941EA022108B2FEF71FFAAC
:1021600080460022234BFEF7A2F906460022294BA7
:10217000FEF72BF90446FEF73CFA274948601B4955
:1021800089791A4AD27941EA022108B2FEF707FAA0
:1021900006460022174BFEF78AF9044600221D4B23
:1021A000FEF713F98046FEF724FA1B4988600F49B1
:1021B000097A0E4A527A41EA022108B2FEF7EFF993
:1021C000064600220E4BFEF772F9044600220D4B24
:1021D000FEF754F88046FEF70CFA0B49086000E061
:1021E00000BF00BFBDE8F08774000020BA000020E7
:1021F000A40000200000E04000003040C8000020A3
:1022000000407540002042408000002000409F4078
:10221000D400002000806640E0000020FEF7E4FBD0
:102220004FF4A060FEF7D2FF4FF4E13000F06CF8FD
:102230004FF4E13000F00CF8FEF754FFFEF708FD14
:10224000FEF782FFFEF778FBFFF7D0F900BFFEE74D
:1022500010B586B0044601218804FFF725F8012156
:102260000820FFF731F801210846FFF72DF84FF459
:102270008060ADF8140018208DF8170003208DF849
:10228000160005A91E48FEF7EBFD4FF40060ADF8FF
:10229000140048208DF8170005A91948FEF7E0FD45
:1022A00027208DF8000002208DF8010001208DF814
:1022B00002008DF803006846FEF750FF01940020ED
:1022C000ADF80800ADF80A00ADF80C00ADF810004C
:1022D0000C20ADF80E0001A90A48FFF7CBFC012243
:1022E00040F225510748FFF7A0FC01210548FFF700
:1022F00066FC40210348FFF759FC06B010BD000002
:10230000000C01400048004010B586B00446012191
:1023100044F20400FEF7D8FF4FF40070ADF814004B
:1023200003208DF8160018208DF8170005A91C4809
:10233000FEF796FD4FF48060ADF8140004208DF890
:10234000170005A91648FEF78BFD25208DF8000023
:1023500003208DF801008DF8020001208DF80300A4
:102360006846FEF7FBFE01940020ADF80800ADF8CA
:102370000A00ADF80C00ADF810000C20ADF80E000E
:1023800001A90848FFF776FC012240F225510548D3
:10239000FFF74BFC01210348FFF711FC06B010BD0D
:1023A0000008014000380140C82300080000002058
:1023B000A4000000C41D00086C240008A400002034
:1023C00014050000D41D000800A24A04000000000B
:1023D0000000000001020304060708090000F041A4
:1023E00000000000000016440000F0410000000062
:1023F0000000164400000000000000000000000083
:1024000000000000000000000000000000000000CC
:1024100000000000000000000000000000000000BC
:1024200000000000000000000000000000000000AC
:102430000000000000000000000000000000FF009D
:10244000AA00520000000000000000000000000090
:10245000000000000000000000000102030401026F
:0C24600003040607080902040608000037
:0400000508000145A9
:00000001FF
