:020000040800F2
:10000000D807002045010008171700083915000817
:10001000D51600086B0C00087328000800000000CB
:10002000000000000000000000000000211E000889
:10003000110E000800000000191B0008951F0008A1
:100040005F0100085F0100085F0100085F01000810
:100050005F0100085F010008D10F000829100008A7
:100060005F0100085F0100085F0100085F010008F0
:100070005F0100085F0100085F0100085F010008E0
:100080005F0100085F0100085F0100085F010008D0
:100090005F0100085F0100085F010008851000088B
:1000A0005F0100085D2000085F0100085F01000893
:1000B0005F0100085F0100085F0100085F010008A0
:1000C0005F0100085F0100085F0100085F01000890
:1000D0005F010008AD2500085F0100083526000813
:1000E0005F0100085F0100085F0100085F01000870
:1000F0005F0100085F0100085F0100085F01000860
:100100005F0100085F0100085F0100085F0100084F
:100110005F0100085F0100085F0100085F0100083F
:100120005F0100085F0100085F0100085F0100082F
:10013000DFF80CD000F0F4FB0048004765350008FC
:10014000D80700200648804706480047FEE7FEE73C
:10015000FEE7FEE7FEE7FEE7FEE7FEE7FEE7FEE777
:10016000991F000831010008F0B480EA0102D40FA1
:100170004200B2EB410F02D20246084611464A0045
:1001800042D0C30DDDB2C1F3C752AD1A202D35DA0E
:10019000C1F3160141F4000204B15242C5F1200638
:1001A00002FA06F12A411044B3EBD05F23D0C4B168
:1001B000012DA0EBC35009DCF0BC4FF0004202EA75
:1001C000C352DBB200F5000000F0EFBA400000F1CE
:1001D000807000EBC350A0F1807040EAD1704900FC
:1001E00009E0490841EAC071A0EBC35000F50000E6
:1001F000400800EBC350F0BC00F0CEBA61420122CF
:1002000002EB4101001BF6E7F0BC704781F00041B2
:10021000AAE780F00040A7E780EA010210B502F0EB
:100220000043400022D04A001FD0010E01EB1261B2
:10023000C0F35600C2F3560240F4000042F400023C
:10024000A0FB022000047F39140400D0401C50EAB7
:10025000124001D44000491EC2B20C0604EBD0107B
:10026000401C4008802A02D003E0002010BD20F08E
:100270000100002900DA0020184310BD2DE9FE4FCF
:10028000804681EA0300C00F0C46009021F0004137
:1002900023F00045B8EB0200A94105D240462146B3
:1002A00090461C460B46024623F00040104347D0C0
:1002B000270DC7F30A00C3F30A510290401A0190B8
:1002C00040286BDAC3F3130040F4801B0098924679
:1002D00020B10023D2EB030A63EB0B0B01985946C4
:1002E000C0F14002504600F026FA06460D46504640
:1002F0005946019A00F03EFA10EB080061410024D3
:1003000087EA115284EAE7731A4340D0009A62B335
:10031000019A012A4FEA075215DC001B61EB02012A
:100320004FF0004202EA0752CDE90042001C41F5BD
:10033000801132462B4600F075FA03B0BDE8F08F0D
:1003400040462146F9E7001B61EB0201001C41F524
:10035000801300185B412018A2F5001747EB03013A
:1003600040EAD570B6196D4111E06D084FEA3606C6
:1003700045EAC0754FEA0752001B61EB0201001C01
:1003800041F5801149084FEA3000001951413246C9
:100390002B4603B0BDE8F04F00F035BA00980122BB
:1003A00040000023D0EB020263EBE073009821468B
:1003B0004FEAE074B8EB000061EB0401E9E783F079
:1003C00000435BE781F0004158E72DE9FE4F81EAE9
:1003D000030404F0004421F0004100944FF0000BAE
:1003E00023F0004350EA01045ED052EA03045BD0DC
:1003F000C3F30A54C1F30A552C44A4F2F334019414
:10040000A0FB0254C1F3130141F48011C3F31303A1
:1004100043F4801301FB024400FB034E840A970A55
:1004200044EA815447EA8357A4FB076802958D0A82
:1004300005FB07854FEA932C04FB0C542705029D0E
:100440004FEA065847EA1637B5EB08056EEB070C7E
:10045000870E920E47EA811742EA8312A7FB020138
:10046000B6EB0B0164EB00042B0D43EA0C335E1872
:1004700044EB1C50DA465146E7FB0201C5F3130476
:100480004FEA0B3343EA14534FEA0432019C43EA28
:100490000603A4F10C040294009CCDE900B400F022
:1004A000C1F903B0BDE8F08F00200146F9E72DE95E
:1004B000F04D81EA030404F0004B21F0004514469E
:1004C0004FF0000A23F0004150EA050220D054EA20
:1004D00001021DD0C5F30A570246C5F31303C1F349
:1004E0001300C1F30A5640F4801543F48013A7EBC0
:1004F0000608101BD64608F2FD3873EB050002D340
:1005000008F1010801E092185B41B8F1000F03DA2D
:1005100000200146BDE8F08D00204FF48011064612
:1005200084460EE0171B73EB050705D3121B63EB24
:10053000050306434CEA010C49084FEA30009218C3
:100540005B4150EA0107EDD152EA030012D082EA82
:10055000040083EA0501084305D0101BAB4106D215
:100560000122002306E000224FF0004302E06FF07A
:10057000010253101AEB06004CEB085110EB0A0075
:1005800041EB0B01BDE8F04D00F03DB9C10F80EA31
:10059000E0700844CA079623002100F006B90EB5A2
:1005A000C10F80EAE0700844CA07002140F23343DB
:1005B0008DE80E000A460B4600F034F903B000BD8A
:1005C0000EB540F2334102910021CDE900110A46F7
:1005D0000B4600F027F903B000BD00F0004220F008
:1005E0000040C10DC0F3160040F400007F2901DA7D
:1005F00000207047962903DCC1F19601C84001E054
:1006000096398840002AF4D04042704770B5C1F353
:100610000A5201F000450024C1F3130140F2FF33F8
:1006200041F480119A4201DA002070BD40F2334358
:100630009A42A2F2334203DC524200F08BF800E00F
:1006400090402C43F1D0404270BD00F0004230F0A9
:1006500000400AD0C10D01F56071C0F3160042EAF6
:100660000151C208400711437047002001467047FE
:1006700001F0004330B421F0004150EA010206D0FD
:100680000A0DA2F56072C1F31301002A02DC30BC2E
:1006900000207047440F44EAC104C100E01830BC98
:1006A00000EBC25000F078B830B50B460146002090
:1006B0002022012409E021FA02F59D4205D303FA24
:1006C00002F5491B04FA02F52844151EA2F10102A5
:1006D000F1DC30BD2DE9F05F0546002092469B46D7
:1006E00088460646814640241BE028464146474648
:1006F000224600F02FF853465A46C01A914110D3B3
:1007000011461846224600F016F82D1A67EB01082C
:100710004F4622460120002100F00DF817EB00099A
:100720004E41201EA4F10104DFDC484631462A4632
:100730004346BDE8F09F202A04DB203A00FA02F18C
:10074000002070479140C2F1200320FA03F31943BF
:1007500090407047202A04DB203A21FA02F0002161
:10076000704721FA02F3D040C2F1200291400843C1
:1007700019467047202A06DBCB17203A41FA02F0CF
:1007800043EAE07306E041FA02F3D040C2F12002EE
:1007900091400843194670470029A8BF7047401C84
:1007A000490008BF20F00100704710B4B0FA80FC87
:1007B00000FA0CF050EA010404BF10BC704749B1C4
:1007C000CCF1200421FA04F411FA0CF118BF012134
:1007D00021430843A3EB0C01CB1D4FEA00614FEA14
:1007E000102042BF002010BC704700EBC3501044E3
:1007F0000029A4BF10BC7047401C490008BF20F06E
:10080000010010BC704710B5141E73F1000408DA23
:10081000401C41F1000192185B411A4301D120F0C4
:10082000010010BD2DE9F04D92469B4611B1B1FA81
:1008300081F202E0B0FA80F220329046FFF77BFFAF
:1008400004460F4640EA0A0041EA0B0153465A4665
:10085000084313D0114653EA010019D0C8F14002F1
:100860005046FFF777FF05460E465046594642462A
:10087000FFF761FF084305D0012004E02046394618
:10088000BDE8F08D0020054346EAE0762C4337436F
:100890000A986305E40AA0EB08000022FD0A44EA76
:1008A00047540A3002D500200146E9E70105101936
:1008B0006941DDE9084500196941BDE8F04DA2E74D
:1008C000C1F30A52C1F3130140F2FF3341F4801126
:1008D0009A4202DA00200146704740F233439A42BE
:1008E000A2F2334202DC5242FFF734BFFFF723BFCC
:1008F00030B5041E71F1000404DB4FF000444042A7
:1009000064EB0101141E73F1000405DB1C464FF07B
:100910000043524263EB0403994208BF904230BD4A
:10092000064C074D06E0E06840F0010394E807003C
:1009300098471034AC42F6D3FFF7FEFB1837000897
:100940003837000808B50121084601F0F3F8012105
:100950004FF4067001F00EF92020ADF800001020D1
:100960008DF8030003208DF802006946194800F055
:1009700049FD2021174800F0D0FD4020ADF80000CF
:1009800010208DF8030003208DF8020069461148FD
:1009900000F038FD40210F4800F0BFFD8020ADF889
:1009A000000010208DF8030003208DF80200694636
:1009B000084800F027FD8021064800F0AEFD0F201A
:1009C000ADF8000000208DF803006946024800F0F1
:1009D00019FD08BD000C01400010014000B591B0A8
:1009E0003D4800F051F93D4806903D4807900020F1
:1009F00008900A9080200B90C82009904FF48070D6
:100A00000C9080000D9020200E9000020F9000208E
:100A1000109006A9304800F0DDF901212E4800F0C1
:100A200026F90020019001208DF808008DF80900BA
:100A30004FF4602003900020049004208DF81400EF
:100A400001A926484C3800F077F84FF4004001F037
:100A500065F8072301220A2120484C3800F094F859
:100A6000072302220B211D484C3800F08DF8072384
:100A700003220C2119484C3800F086F80723042281
:100A80000D2116484C3800F07FF8012113484C38EE
:100A900000F033F8012111484C3800F023F80F48DA
:100AA0004C3800F0CDF800BF0C484C3800F03AF854
:100AB0000028F9D109484C3800F0D2F800BF0748A7
:100AC0004C3800F025F80028F9D1012103484C38B2
:100AD00000F0BBF811B000BD080002404C240140FA
:100AE0003801002021B1826842F00102826003E0F7
:100AF000826822F001028260704721B1826842F46C
:100B00008072826003E0826822F4807282607047A3
:100B1000014600208A6802F004020AB1012000E0C8
:100B200000207047014600208A6802F008020AB1DE
:100B3000012000E00020704730B50246002000236D
:100B400050680F4C20400D790C6844EA052420437E
:100B5000506090680B4C2040D1E902542C434D79F1
:100B600044EA450420439060D06A20F470000C7C75
:100B7000641EE4B2234340EA0350D06230BD00005B
:100B8000FFFEF0FFFDF7F1FFF0B504460D46002033
:100B90000021092D11DDE068A5F10A0606EB4607E4
:100BA000072606FA07F18843A5F10A0606EB460672
:100BB00003FA06F10843E0600CE0206905EB450705
:100BC000072606FA07F1884305EB450603FA06F106
:100BD00008432061072A0FDA606B561E06EB860772
:100BE0001F2606FA07F18843561E06EB860605FA0D
:100BF00006F10843606322E00D2A0FDA206BD61F4E
:100C000006EB86071F2606FA07F18843D61F06EB78
:100C1000860605FA06F10843206310E0E06AA2F1B7
:100C20000D0606EB86071F2606FA07F18843A2F198
:100C30000D0606EB860605FA06F10843E062F0BDF4
:100C4000816841F008018160704721B1826842F4F7
:100C5000A002826003E0826822F4A00282607047F2
:100C6000816841F004018160704700BFFEE721B157
:100C7000026842F00102026004E002684FF6FE736F
:100C80001A4002607047000001684FF6FE72114082
:100C900001600021016041608160C1604B49884270
:100CA00008D14A490839496841F00F01474A083AD2
:100CB00051608AE045491431884208D143490839D6
:100CC000496841F0F001414A083A51607DE03F49EE
:100CD0002831884208D13D490839496841F470619A
:100CE0003A4A083A516070E038493C31884208D1AC
:100CF00036490839496841F47041344A083A51602C
:100D000063E032495031884208D130490839496896
:100D100041F470212D4A083A516056E02B49643164
:100D2000884208D129490839496841F47001274AA5
:100D3000083A516049E025497831884208D1234971
:100D40000839496841F07061204A083A51603CE036
:100D50001F49884206D1011F096841F00F01021F97
:100D6000116032E01A491431884208D11849091F2C
:100D7000096841F0F001164A121F116025E014497C
:100D80002831884208D11249091F096841F470616D
:100D90000F4A121F116018E00D493C31884208D1FA
:100DA0000B49091F096841F47041094A121F11607B
:100DB0000BE007495031884207D10549091F0968EE
:100DC00041F47021024A121F11607047080002406E
:100DD0000804024010B50022026847F6F0739A43F7
:100DE0000C6A8B6823430C6923434C6923438C6949
:100DF0002343CC6923434C6A23438C6A23431A431D
:100E00000260CB6843600B6883604B68C36010BDB1
:100E10007047000010B56FF0040001F0A7F80A4811
:100E200000680A49B0FBF1F00949087008460078EB
:100E300000EB4001C1EBC0104FF6FF7101EAC000AA
:100E40000449088010BD00000000002000127A0054
:100E5000C8000020CA0000202DE9F05F00205049A2
:100E600008605049C1F898014D49083108600520D3
:100E700002F0C0F900BF80214B4801F02CFC002893
:100E8000F9D002F0DDF90020484908802FE04849F8
:100E9000464A128831F8120000F043FB4549434AA4
:100EA000128821F81200414A128831F81200FFF727
:100EB00087FB82460022404BFFF7F9FA80463F4A03
:100EC0003F4BFFF77CFA064632460B463D483E490B
:100ED000FFF7EDFA0446FFF799FB3C49334A1288C5
:100EE00021F8120031480088401C304908802F4802
:100EF00000880428CBDB012029490860002029490B
:100F0000C1F89801264908310860052002F072F9FD
:100F100000BF8021244801F0DEFB0028F9D002F058
:100F20008FF900202149088033E021491F4A1288A7
:100F300031F8120000F0F5FA1E4A1C490988091D13
:100F400022F8110019490988091D32F81100FFF72C
:100F500037FB06460022184BFFF7A9FA0446174A4A
:100F6000174BFFF72CFA804642460B4615481649A8
:100F7000FFF79DFA8246FFF749FB81B2134A0B48FF
:100F80000088001D22F8101008480088401C0749FE
:100F90000880064800880428C7DBBDE8F09F0000F1
:100FA0009481214200802142003801407C000020D1
:100FB000B0000020F800002000005940A4703D0A55
:100FC000D7A3C03F14AE47E17A143840080100208F
:100FD0000120124908601248006878B91048001DC5
:100FE000006828B90F480068401C0E49086014E0EA
:100FF0000C480068401E0B4908600EE00848001DC0
:10100000006828B907480068401E0649086004E0E7
:1010100004480068401C03490860704714040140FC
:10102000008121426C00002002201349086013480F
:10103000006801280FD11148001F006828B9104826
:101040000068401C0E49086014E00D480068401E0E
:101050000B4908600EE00948001F006828B90848DD
:101060000068401E0649086004E005480068401C0E
:1010700003490860704700001404014004812142C4
:101080006C00002010B5402000F056F8F8B1402068
:10109000264908602648006801280FD12448001D11
:1010A000006828B923480068401C2249086014E001
:1010B00020480068401E1F4908600EE01C48001DC3
:1010C000006828B91B480068401E1A49086004E0FF
:1010D00018480068401C17490860802000F02CF870
:1010E00018B38020114908601148001D006870B9CC
:1010F0000F48006828B90F480068401C0D49086077
:1011000013E00C480068401E0A4908600DE00848DA
:10111000006828B907480068401E0649086004E0D6
:1011200004480068401C0349086010BD14040140D5
:101130001801214270000020014600200022074BC8
:101140001B6803EA0102054B14331B680B4013B103
:101150000AB1012000E000207047000000040140B7
:10116000002123498279002A3AD00A46126803688E
:101170009A430B461A600A1D126803689A430B1DB6
:101180001A60027911440A6803681A430A60184A0F
:101190000832126803689A43154B08331A601A1D07
:1011A000126803689A43124B0C331A604279102A72
:1011B0000ED11A1F126803681A430D4B08331A60C8
:1011C0001A1D126803681A43094B0C331A600DE0AC
:1011D0000749427911440A6803681A430A6005E026
:1011E000027911440A6803689A430A607047000054
:1011F0000004014010B500F007F800F03DF800F0E1
:1012000073F800F0A7F810BD1FB50121084600F0E3
:10121000B1FC0121082000F0ADFC0120ADF80C006C
:1012200048208DF80F0003A9124800F0EBF80021C8
:10123000012000F0C7F80120019000208DF808007F
:1012400010208DF8090001208DF80A0001A8FFF791
:1012500087FF06208DF8000001208DF80100002096
:101260008DF8020001208DF80300684600F0BCFBF9
:101270001FBD0000000C01401FB50121084600F011
:1012800079FC0121082000F075FC0220ADF80C006B
:1012900048208DF80F0003A9124800F0B3F801218F
:1012A000084600F08FF80220019000208DF8080019
:1012B00010208DF8090001208DF80A0001A8FFF721
:1012C0004FFF07208DF8000001208DF8010002205B
:1012D0008DF8020001208DF80300684600F084FBC1
:1012E0001FBD0000000C01401FB50121084600F0A1
:1012F00041FC0121042000F03DFC4020ADF80C0031
:1013000048208DF80F0003A9114800F07BF8062152
:10131000002000F057F84020019000208DF80800D0
:1013200010208DF8090001208DF80A0001A8FFF7B0
:1013300017FF17208DF8000001208DF801008DF8AF
:1013400002008DF80300684600F04EFB1FBD000050
:10135000000801401FB50121084600F00BFC0121E7
:10136000042000F007FC8020ADF80C0048208DF828
:101370000F0003A9124800F045F80721002000F0F3
:1013800021F88020019000208DF8080010208DF8B1
:10139000090001208DF80A0001A8FFF7E1FE1720DF
:1013A0008DF8000001208DF8010003208DF8020067
:1013B00001208DF80300684600F016FB1FBD0000F9
:1013C0000008014030B500228B071C0F0F2303FAE1
:1013D00004F20B4B8C1053F824309343084C8D10BF
:1013E00044F8253023468C1053F824308C07240F02
:1013F00000FA04F42343024C8D1044F8253030BD2C
:10140000080001402DE9F041024600250026002099
:1014100000230024002791F803C00CF00F0591F879
:1014200003C00CF0100CBCF1000F03D091F802C007
:101430004CEA050591F800C0BCF1000F31D01468EA
:1014400000202BE04FF0010C0CFA00F3B1F800C0C3
:101450000CEA03069E4220D183004FF00F0C0CFAD9
:1014600003F7BC4305FA03FC4CEA040491F803C0FB
:10147000BCF1280F06D14FF0010C0CFA00FCC2F8A9
:1014800014C00AE091F803C0BCF1480F05D14FF039
:10149000010C0CFA00FCC2F810C0401C0828D1D383
:1014A0001460B1F800C0BCF1FF0F34DD54680020B7
:1014B0002EE000F1080C4FF0010808FA0CF3B1F827
:1014C00000C00CEA03069E4221D183004FF00F0CAE
:1014D0000CFA03F7BC4305FA03FC4CEA040491F848
:1014E00003C0BCF1280F05D100F1080C08FA0CF874
:1014F000C2F8148091F803C0BCF1480F07D100F185
:10150000080C4FF0010808FA0CF8C2F81080401CD3
:101510000828CED35460BDE8F08141617047016175
:10152000704702464FF4A57002FB00F1C81701EBAB
:101530001050C0F30F30704700BFFEE72DE9F05F99
:1015400004460D46281B23490860234800680968A3
:101550000844214908601F490968204A1268881A0E
:10156000FFF714F881461E4801684846FEF754FE0E
:10157000074619480068FFF709F8834619480168CB
:101580005846FEF749FE814612480068FEF7FEFF06
:101590008346154801685846FEF73EFE8246494696
:1015A000FEF7E2FD80463946FEF7DEFD0646FFF710
:1015B00014F80E4908600E480068096808440C4990
:1015C0000860044800680549086009480068BDE8EB
:1015D000F09F000048000020540000205000002030
:1015E00028000020240000202000002058000020B7
:1015F0004C0000202DE9FC5F04460D46281B2149C4
:1016000008600968204A1268881AFEF7BFFF824600
:101610001E4801685046FEF7FFFD80461C480068E2
:10162000FEF7B4FF00901B4801680098FEF7F4FD38
:10163000824614480068FEF7A9FF0090164801682A
:101640000098FEF7E9FD83465146FEF78DFD814681
:101650004146FEF789FD074610480068FEF796FFF1
:1016600039460190FEF780FD0646FEF7B6FF0B49AE
:101670000860044800680449086008480068BDE83C
:10168000FC9F00005C00002064000020340000206B
:1016900068000020300000202C00002060000020A6
:1016A00008B50121402000F065FA4020ADF80000A7
:1016B00010208DF8030003208DF8020069460448CD
:1016C000FFF7A0FE40210248FFF729FF08BD0000F8
:1016D0000018014000BFFEE708B50121042000F01A
:1016E00049FA0F20ADF8000018208DF80300032000
:1016F0008DF8020069460248FFF784FE08BD00002D
:101700000008014010B5FFF7E7FF002141F61F4038
:1017100000F0ACF910BD70471CB511A103C9CDE9AB
:101720000001082000F030FB05226946302000F05F
:1017300025F905226946102000F084F8002406E00F
:101740001DF80400A52800D003E0601CC4B2052CDD
:10175000F6DB00BF052C01D001201CBD0020FCE7FA
:10176000A5A5A5A5A500000000B587B001214FF4EF
:10177000847000F0FFF94FF48050ADF8180010208D
:101780008DF81B0003208DF81A0006A92848FFF7E2
:1017900039FE4FF480512648FFF7C1FEC020ADF856
:1017A000180006A92348FFF72DFE4FF48070ADF80E
:1017B000180028208DF81B0006A91E48FFF722FEFE
:1017C0004FF4E0711B48FFF7A8FE00F069FA002112
:1017D000194800F0EDFA0020ADF804004FF48270D3
:1017E000ADF806000020ADF80800ADF80A00ADF82D
:1017F0000C004FF40070ADF80E001820ADF810008A
:101800000020ADF812000720ADF8140001A90A4825
:1018100000F0E8FA0121084800F0CAFA0020074960
:10182000086001200649C1F89C0107B000BD000016
:10183000000C014000200140003800409801244283
:10184000000024422DE9F04107460D4616460020CF
:101850000A490860384600F06DFA8046002405E029
:10186000FF2000F067FA2855601CC4B2B442F7DBD1
:101870000120024908604046BDE8F0819C012442F5
:1018800070B50446002007490860204600F052FA6F
:10189000FF2000F04FFA054601200349C1F89C01E2
:1018A000284670BD9C0124420000244210B500204F
:1018B0001449086005221449302000F05FF8052221
:1018C00012492A2000F05AF80121212000F074F872
:1018D0000121222000F070F81A21242000F06CF879
:1018E0000021252000F068F80F21262000F064F880
:1018F0000E21202000F060F801200549C1F8980170
:1019000010BD0000980124420C3700081137000870
:101910000000244270B50546102000F035FA002082
:101920001449086020222946A02000F027F8012051
:101930001149C1F8980100BF0E48783800680028A6
:10194000FAD10720FFF79CFF04462146272000F02C
:1019500033F804F0100028B1FF21E12000F02CF84A
:10196000102070BD04F0200008B12020F9E7FF200E
:10197000F7E7000098012442000024422DE9F041DD
:1019800007460C46154600200A490860384600F014
:10199000D1F98046002605E014F8010B00F0CAF9E1
:1019A000701CC6B2AE42F7DB012002490860404617
:1019B000BDE8F0819C01244270B505460C4600202C
:1019C00007490860284600F0B5F90646204600F0B1
:1019D000B1F901200349C1F89C01304670BD0000F7
:1019E0009C0124420000244270B5002100230F22F4
:1019F000C47804B3154C246804F4E064C4F5E064CE
:101A0000210AC1F10403CA40447804FA03F184783E
:101A10001440214309010E4C0678A155047804F0C6
:101A20001F050124AC4005786D11AD0005F1E025DE
:101A3000C5F8004109E0047804F01F050124AC401A
:101A4000044D0678761145F8264070BD0CED00E097
:101A500000E400E080E100E002490143024A116035
:101A6000704700000000FA050CED00E030B587B0CB
:101A700005460C460121082000F06CF8ADF8145022
:101A8000ADF810400020ADF81600ADF8120004A922
:101A9000204800F039FD6020ADF800000120ADF8CD
:101AA00002000020ADF8080069461A4800F0C8FBA3
:101AB0000821184800F010FC6946164800F016FC92
:101AC0000821144800F064FC6946124800F06EFCDE
:101AD0000821104800F0BAFC69460E4800F0C0FC2E
:101AE00008210C4800F0FAFC01210A4800F081FBB3
:101AF0000021084800F0FFFC0021064800F0FDFC32
:101B00000021044800F0FBFC0021024800F0F9FC31
:101B100007B030BD000C00407047000001460020B7
:101B2000034A506820F4404008435060704700006A
:101B30000010024029B1064A52690243044B5A611F
:101B400004E0034A52698243014B5A617047000026
:101B50000010024029B1064AD2690243044BDA61FF
:101B600004E0034AD2698243014BDA617047000006
:101B70000010024029B1064A92690243044B9A615F
:101B800004E0034A92698243014B9A617047000066
:101B90000010024030B500210022002400232D4D0A
:101BA0006D6805F00C0121B1042905D0082923D165
:101BB00005E0294D056022E0274D05601FE0254D19
:101BC0006D6805F47012234D6D6805F480340225AC
:101BD00005EB92421CB9214D554305600BE01D4DAC
:101BE0006D6805F400351DB11C4D5543056002E0DC
:101BF000194D5543056002E0174D056000BF00BF59
:101C0000144D6D6805F0F0010909154D6B5C056810
:101C1000DD4045600F4D6D6805F4E061090A104D27
:101C20006B5C4568DD4085600A4D6D6805F4605168
:101C3000C90A0B4D6B5C4568DD40C560054D6D689C
:101C400005F44041890B074D6B5CC568B5FBF3F5A6
:101C5000056130BD0010024000127A0000093D000D
:101C6000D2000020E20000200146022902D0032910
:101C70000ED106E0084A128810B20022064B1A6004
:101C800008E0064A128810B20022044B1A6001E0F4
:101C9000002000BF00BF70476C00002070000020D3
:101CA00000B587B001210820FFF764FF01218803F8
:101CB000FFF750FF4FF46040ADF8180018208DF882
:101CC0001B0003208DF81A0006A91848FFF79AFB9D
:101CD0004FF460411548FFF722FC0020ADF80400E6
:101CE0004FF48270ADF806000020ADF80800022025
:101CF000ADF80A000120ADF80C004002ADF80E006E
:101D00003820ADF810000020ADF812000720ADF823
:101D1000140001A9064800F065F80121044800F00C
:101D200047F8FF2000F006F807B000BD000C0140A6
:101D30000038004070B50546002405E0601CC4B2C0
:101D4000C82C01DD002070BD02210E4800F03CF8D7
:101D50000028F3D029460B4800F042F8002405E0A3
:101D6000601CC4B2C82C01DD0020ECE7012105484D
:101D700000F02AF80028F3D0024800F02EF8C0B294
:101D8000E1E700000038004010B50446074800882D
:101D90004FF6C7710840054908800846008820436F
:101DA00008800121014800F003F810BD0038004010
:101DB00021B1028842F04002028004E002884FF61E
:101DC000BF731A40028070470246002013890B40FF
:101DD0000BB1012000E00020704701468889704760
:101DE0008181704710B50022028802F441520B88AD
:101DF0004C8823438C882343CC8823430C8923437A
:101E00004C8923438C892343CC8923431A43028082
:101E1000838B4FF2FF74234083830B8A038210BDB0
:101E2000704710B500F002F810BD00000CB500209E
:101E3000019000903348006840F4803031490860D8
:101E400000BF3048006800F4003000900198401C4A
:101E50000190009818B90198B0F5A06FF1D1294808
:101E6000006800F4003010B10120009001E0002073
:101E700000900098012843D12348006840F01000EA
:101E8000214908600846006820F003000860084601
:101E9000006840F0020008601A484068194948602C
:101EA0000846406848600846406840F480604860E2
:101EB0000846406820F47C1048600846406840F4BA
:101EC000E81048600846006840F08070086000BF75
:101ED0000C48006800F000700028F9D009484068FC
:101EE00020F00300074948600846406840F00200BF
:101EF000486000BF0348406800F00C000828F9D192
:101F00000CBD00000010024000200240002808DA4A
:101F10004FF4E151084A118000F5E151121D118082
:101F200008E04FF4E151044A121D1180C0F5E1515F
:101F3000121F1180704700003C0C0040002808DA96
:101F40004FF4E151084A118000F5E151121F118050
:101F500008E04FF4E151044A121F1180C0F5E1512D
:101F6000121D118070470000380C0040042808D171
:101F70004FF0E021096941F004014FF0E0221161C6
:101F800007E04FF0E021096921F004014FF0E02261
:101F9000116170477047000010B51348006840F0A9
:101FA00001001149086008464068104908400E4980
:101FB0004860084600680E4908400B49086008461A
:101FC000006820F4802008600846406820F4FE0085
:101FD00048604FF41F008860FFF723FF4FF0006058
:101FE0000449086010BD0000001002400000FFF826
:101FF000FFFFF6FE08ED00E01FB50121C802FFF764
:10200000B9FD41F28730ADF808008F20ADF804002B
:102010000020ADF80A00ADF806008DF80C0001A90B
:102020000D4800F071FA012211460B4800F0FEF84D
:1020300019208DF8000000208DF8010003208DF894
:10204000020001208DF803006846FFF7CDFC012156
:10205000014800F0CEF81FBD002C01402DE9FC5FC7
:1020600001214F4800F0D1F800287CD001F016F98A
:102070004C498868FEF7E9FA044622460B464AA016
:1020800000F01EFCFEF7E8FE01F084F84848FFF778
:1020900041FC4FF07C504749086042498868FEF790
:1020A000D4FA06460022444BFEF789F904460D4651
:1020B00042480068FEF7C9FA804622462B46FEF7E2
:1020C00084F9824600223C4BFEF7F1F9CDE900018C
:1020D000FEF7CEFA3A4908600846016835480068BC
:1020E000FEF742F837490860354801683148006812
:1020F000FEF78CF83449086032480068FEF7A5FA0C
:1021000080460022314BFEF760F906464FF033322D
:102110002F4BFEF7CCF90446FEF778FA2D490860FC
:1021200029480068FEF791FA80460022274BFEF707
:102130004CF906464FF03332254BFEF7B8F904460A
:10214000FEF764FA244908600220FFF78DFD234959
:1021500008600320FFF788FD214908601D480168D9
:102160001E48006800E019E0FFF7E8F91D49086023
:10217000194801681A480068FFF73CFA1A490860D4
:1021800000F07AFB17480068FFF7C0FE16480068A9
:10219000FFF7D4FE0121024800F028F8BDE8FC9FBB
:1021A000002C0140040300207A3A25660D0A000045
:1021B000180100209800002000804640A400002064
:1021C000A0000020AC000020A80000200000594022
:1021D0003333FB3F900000208C000020740000206F
:1021E000780000208400002088000020CA4302827A
:1021F000704721B1028842F00102028004E00288A7
:102200004FF6FE731A400280704730B50246002038
:1022100000230024158A05EA0103958905EA0104D3
:1022200013B10CB1012000E0002030BD1AB1838948
:102230000B43838102E083898B43838170470000D5
:1022400070B5002400220023058C4FF6FE76354041
:102250000584028C8388048B4FF68F752C40B51E45
:102260002C400D882C43751E2A400D892A434D8829
:102270002A43144DA8420BD0134DA84208D0134D49
:10228000A84205D0124DA84202D0124DA84213D147
:102290004FF6F7752A404D892A434FF6FB752A40C1
:1022A0008D882A434FF6FF652B404FF6FF552B4094
:1022B0008D892B43CD892B4383800483CD888586EC
:1022C000028470BD002C01400034014000400140F8
:1022D00000440140004801400A460021018B4FF6AE
:1022E000F7731940114301837047000070B5002453
:1022F00000220023058C4FF6EF7635400584028CD2
:102300008388048B48F6FF752C404FF6FF452C4020
:102310000D884FF6FF7606EA05252C434FF6DF754C
:102320002A400D8906EA05152A434D8806EA051557
:102330002A43154DA84202D0144DA8421DD14FF694
:102340007F752A404D894FF6FF7606EA05152A4328
:102350004FF6BF752A408D8806EA05152A434FF6C9
:10236000FF352B404FF2FF752B408D8906EA85051E
:102370002B43CD8906EA85052B4383800483CD88D2
:102380000587028470BD0000002C0140003401402C
:102390000A460021018B4FF2FF7319404FF6FF737D
:1023A00003EA0223194301837047000070B500243B
:1023B00000220023058C4FF6FF6635400584028C11
:1023C0008388848B4FF68F752C404FF6FC752C401C
:1023D0000D882C434FF6FF552A400D894FF6FF76A6
:1023E00006EA05252A434D8806EA05252A43154DA8
:1023F000A84202D0144DA8421DD14FF2FF752A40C9
:102400004D894FF6FF7606EA05252A434FF6FF353C
:102410002A408D8806EA05252A434EF6FF752B4093
:102420004DF6FF752B408D8906EA05152B43CD89A6
:1024300006EA05152B4383808483CD888587028433
:1024400070BD0000002C0140003401400A4600210C
:10245000818B4FF6F7731940114381837047000059
:1024600070B5002200230024058C4EF6FF7635401F
:102470000584038C8488828B48F6FF752A404FF6CA
:10248000FF452A400D884FF6FF7606EA05252A43C8
:102490004DF6FF752B400D8906EA05352B434D8817
:1024A00006EA05352B430B4DA84202D00A4DA8423F
:1024B00008D14BF6FF752C408D894FF6FF7606EA62
:1024C00085152C4384808283CD88A0F840500384F6
:1024D00070BD0000002C0140003401400A4600217C
:1024E000818B4FF2FF7319404FF6FF7303EA02230B
:1024F00019438183704781867047018770478187C0
:102500007047A0F840107047002202881D4B984287
:102510000ED01D4B98420BD0B0F1804F08D01B4B12
:10252000984205D01A4B984202D01A4B984204D1D7
:102530004FF68F731A404B881A43174B984207D0B7
:10254000164B984204D04FF6FF431A40CB881A43EB
:1025500002808B8883850B8803850A4B98420BD0B9
:10256000094B984208D00E4B984205D00D4B98422B
:1025700002D00D4B984201D10B7A0386012383824E
:1025800070470000002C014000340140000400406E
:1025900000080040000C0040001000400014004003
:1025A00000400140004401400048014010B540F2A5
:1025B00025511D4800F09CF810B31B4800F054F959
:1025C000C4B21A48008800F40040C8B9174800880F
:1025D00000F4804060B10A2C03D000201349088029
:1025E00020E01248008840F400401049088019E0BB
:1025F0000D2C06D10D48008840F480400B4908801E
:1026000010E00A480088C0F30D0009490C5407483F
:102610000088401C0549088008460088C72801DD5D
:102620000020088010BD000000380140D0000020CC
:102630001003002010B540F22551174800F058F85B
:1026400038B3154800F010F91449154A1278885427
:102650001348007820B908460078552800D010BDEE
:102660000F480078401C0E490870084600780B2877
:102670000FD10C4809490A6802604A6842600A8919
:102680000281897A8172002005490870012006497B
:10269000087000BFE3E7000000480040D3020020BC
:1026A000B9000020C8020020B800002001F4007228
:1026B000B2F5007F00D100BFCA430280704721B14C
:1026C000828942F40052828104E082894DF6FF73D0
:1026D0001A408281704702460020B1F5007F00D188
:1026E00000BF13880B400BB1012000E000207047B1
:1026F00070B50246002400230025002040F66A162B
:10270000B14200D100BFC1F3421501F01F03012601
:1027100006FA03F3012D02D19689334006E0022D1B
:1027200002D1168A334001E0968A33400C1201260A
:1027300006FA04F41688344013B10CB1012000E00D
:10274000002070BDF0B503460024002600250020BF
:1027500040F66A17B94200D100BF1846C1F34214CF
:1027600001F01F06012707FA06F5012C01D10C30F4
:1027700004E0022C01D1103000E014301AB10768D7
:102780002F43076002E00768AF430760F0BD000019
:102790002DE9F04786B005460E460024A24600BF4C
:1027A000A1460027B08900B100BF2F462C8A4CF605
:1027B000FF700440F08804432C82AC894EF6F3107D
:1027C0000440B08831890843718908430443AC81CF
:1027D000AC8A4FF6FF400440B0890443AC8201A8A4
:1027E000FFF7D8F91F48874202D1DDF810A001E0B9
:1027F000DDF80CA0A88900F4004040B10AEBCA0043
:1028000000EB0A1031684900B0FBF1F807E00AEB71
:10281000CA0000EB0A1031688900B0FBF1F86420AF
:10282000B8FBF0F004012009642101FB1089A8899C
:1028300000F4004040B1322000EBC900B0FBF1F0E1
:1028400000F00700044308E0322000EB0910642187
:10285000B0FBF1F000F00F0004432C8106B0BDE89E
:10286000F08700000038014001468888C0F3080066
:10287000704700BFFEE7000041F6BC300E49096812
:102880004242914202DA41420B4A11600A49096808
:10289000814201DD084908600849096842429142C5
:1028A00002DA4142054A116004490968814201DDAA
:1028B0000249086070470000840000208800002062
:1028C0000FB4054B10B503A9044A029800F0CAF8EA
:1028D00010BC5DF814FB000081320008CC00002021
:1028E00002E008C8121F08C1002AFAD170477047D9
:1028F000002001E001C1121F002AFBD17047000037
:102900002DE9FF5FDDE90220010DDDF838B002435B
:1029100018D044F61050A1F2FF3141430D140F9826
:10292000012820D0A5EB0B00401C5FEA000A4FF005
:102930000004474EDFF81C91A046504616D5CAF158
:10294000000728E00F98012443A2012808D00021A5
:1029500000980F9BC0E90021C0E90243BDE8FF9F3A
:102960006FEA0B01F4E7CBF10000DEE7074612E067
:10297000F80707D02246334640464946FDF725FD75
:10298000804689462246334610461946FDF71DFD0E
:1029900004460E467F10002FEAD1DDE90201BAF1AC
:1029A000000F42464B4602DAFDF70FFD01E0FDF74E
:1029B0007EFD04460E460022284BFDF799FF03D802
:1029C0004FF0FF30014607E00022254B20463146FC
:1029D000FDF754FCFDF774FF102409E0002C0ADB1E
:1029E0000A220023FDF776FE019B30321A55641E41
:1029F00050EA0102F2D1641C019AC4F1110314449B
:102A00000F9A012A03D0012208430DD10AE008439E
:102A100004D000204FF0110B0F9080E7A3EB0B05C3
:102A20006D1E0DE05B4504DD4FF0000205F1010570
:102A300004E003DA4FF00002A5F10105002AECD012
:102A400000980F99C0E90231C0E9004586E700000F
:102A5000000024400000F03F300000000000F04380
:102A60000000E03F2DE9FF4F95B09B4689460646A2
:102A700000250FE2252877D100242746F84A0121B6
:102A8000059400E0044316F8013F203B01FA03F0EF
:102A90001042F7D130782A2811D06FF02F03307808
:102AA000A0F13002092A16D8059A44F0020402EB7C
:102AB000820203EB42021044761C0590EFE759F8BE
:102AC000042B0592002A03DA504244F40054059086
:102AD00044F00204761C30782E2816D116F8010F27
:102AE00044F004042A280DD06FF02F023078A0F1B2
:102AF0003003092B09D807EB870302EB4303C71800
:102B0000761CF3E759F8047B761C30786C280FD0DC
:102B100006DC4C2817D068280DD06A2814D104E0B0
:102B2000742810D07A280FD10DE044F400140AE084
:102B300044F4801401E044F440147278824202D1DB
:102B400004F58014761C761C307866280BD013DCD4
:102B5000582877D009DC002875D04528F6D04628BB
:102B6000F4D047281AD19DE118E0632835D06428B5
:102B700079D0652812D195E1702873D008DC6728D8
:102B8000F1D069286FD06E280DD06F2806D1B5E03E
:102B900073282CD0752875D0782874D05A46179988
:102BA00090476D1C75E1C4F30250022809D0032838
:102BB0000DD0D9F8001004280DD00D6009F10409DA
:102BC00067E1D9F80010EA17C1E90052F6E7D9F831
:102BD00000100D80F2E70D70F0E719F8041B8DF876
:102BE000001000208DF80100EA46012003E059F8AA
:102BF00004AB4FF0FF3061074FF0000102D40DE04D
:102C000008F101018846B9420FDA8045F8DB1AF86D
:102C100008100029F4D108E008F10101884681423A
:102C2000FADB1AF808100029F6D105985B46A0EBEC
:102C3000080721463846179A00F094FA284400EB1A
:102C4000080507E04DE029E10DE01AF8010B5A46AE
:102C500017999047B8F10108F7D25B4621463846EC
:102C6000179A13E142E00A220092C4F302524FF095
:102C7000000A022A08D059F804CB032A4FEAEC7163
:102C80000AD00DE029E02AE009F1070121F007024E
:102C9000F2E802C1914609E00FFA8CFC4FEAEC71B0
:102CA000042A03D14FFA8CFC4FEAEC71002907DAB1
:102CB0000A460021DCF1000C61EB02012D2202E04A
:102CC000220504D52B228DF80420012203E0E2071F
:102CD00001D02022F7E7904659E00A2102E01022B5
:102CE0000DE010214FF0000A00910BE010224FF090
:102CF000000A44F004040827009203E008224FF081
:102D0000000A0092C4F30252022A05D059F804CBFB
:102D10000021032A08D009E009F1070121F0070288
:102D2000F2E802C1914605E01FFA8CFC042A01D1A9
:102D30000CF0FF0C4FF00008220728D5702806D0B1
:102D4000009B83F0100353EA0A0305D00EE04022F3
:102D50008DF80420012208E05CEA010206D030224E
:102D60008DF804208DF8050002229046009B83F028
:102D7000080353EA0A030AD15CEA010201D162079F
:102D800005D530228DF804204FF001087F1E582809
:102D900004D034A003900EA802900DE036A0F9E70D
:102DA00053466046009AFDF795FC84460398825C82
:102DB0000298401E029002705CEA0100F0D1029875
:102DC00006A9081A00F1200A600702D524F480340D
:102DD00000E00127574502DDA7EB0A0000E00020D4
:102DE00000EB0A01009005984144401A0590E00369
:102DF00006D45B462146179A059800F0B3F90544BE
:102E0000002706E001A85A46C05D179990476D1C3F
:102E10007F1C4745F6DBE0030CD55B462146179A3D
:102E2000059800F09FF9054404E030205A461799B0
:102E300090476D1C0099481E00900029F5DC08E0C1
:102E4000029802995A460078491C029117999047B6
:102E50006D1CBAF10001AAF1010AF1DC65E1000084
:102E60000928010030313233343536373839616260
:102E70006364656600000000303132333435363724
:102E800038394142434445460000000000F058F9FB
:102E90000544761C307800287FF4ECAD19B0284644
:102EA000BDE8F08F620700D4062709F1070222F07F
:102EB000070CFCE80223E14603F000485FEA080C37
:102EC00002D00FF2702C0DE05FEA045C02D50FF225
:102ED000682C07E05FEAC47C02D00FF2602C01E0AE
:102EE000AFF2700C4FF0FF3823F00043CDF850C024
:102EF00065280CD006DC452809D046281DD0472877
:102F00003DD13DE0662818D067287ED138E0002109
:102F1000112F01DB112000E0781CCDE9000106A98A
:102F20000EA8FFF7EDFCDDE90F010E9A03910021D9
:102F3000009207F1010A04914DE04FF00040009724
:102F4000CDE9011006A90EA8FFF7DAFCDDE90F02B2
:102F500003920E9B11990022DDF80CA000930492BD
:102F600011B9791C00EB010AB7EB0A0004D4C0F1D7
:102F7000FF3007F1010A0490AAEB0700019044E03A
:102F8000012F00DA01270021112F01DD112000E0BF
:102F90003846CDE9000106A90EA8FFF7B1FCDDE92E
:102FA0000F010E9A0391002104910092BA46210765
:102FB0000CD40399514500DA8A46BAF1010F05DDB8
:102FC000009AAAF10101515C302908D0B84202DA16
:102FD00010F1040F06DA0121CDE9011015E0AAF184
:102FE0000101E9E7002805DC049901440491AAEBFA
:102FF000000102E0411C514500DD8A460499401A57
:10300000401C01904FF000400290200704D401982A
:10301000504501DBCDF8048000208DF84F00029868
:103020000DF14F07B0F1004F25D02B200E900298E4
:103030004FF0020800280CDA404202902D200E903A
:1030400007E00A210298FDF72FFB3031029007F8C4
:10305000011DB8F10001A8F10108F2DC0298002876
:10306000EFD1791E0E980870307800F0200040F003
:10307000450007F8020D12A8C01B00F107081498BC
:10308000007800B1012000EB0A01019801EBE0712A
:1030900005984144401A401E0590E00306D45B4663
:1030A0002146179A059800F05DF8054414980078B9
:1030B00018B15A46179990476D1CE00324D55B461A
:1030C0002146179A059800F04DF805441CE0049835
:1030D000002807DBDDE90301884203DD0098405C3E
:1030E000179901E0179930205A469047049805F146
:1030F0000105401C04900198401E019004D12E202F
:103100005A46179990476D1CBAF10001AAF1010ABD
:10311000DDDC05E017F8010B5A46179990476D1C46
:10312000B8F10001A8F10108F4DC5B462146179ACA
:103130000598ABE62D0000002B00000020000000E9
:103140002DE9F041044600251E461746880404D4A4
:1031500005E039462020B0476D1C641EF9D528468D
:10316000BDE8F0812DE9F041044600251E46904659
:10317000C80301D5302700E02027880404D505E0E6
:1031800041463846B0476D1C641EF9D52846BDE857
:10319000F081000010B5154A52880A2392FBF3F221
:1031A000092A08DD114A528892FBF3F403FB14222A
:1031B0005A320E4B5A800D4A52880A2392FBF3F47E
:1031C00003FB14223032D1B2084A528892FBF3F248
:1031D0003032D0B20422064B1A701A4650709170E9
:1031E0000D22DA700A221A7110BD000008010020B9
:1031F000180100200146114A12884A434FF0E0238B
:103200005A6100229A611A46126942F001021A615B
:1032100000BF4FF0E022106900F001021AB100F483
:103220008032002AF5D04FF0E022126922F001022C
:103230004FF0E0231A6100229A617047CA00002013
:1032400010B50022002014E0002107E00A4B03EB38
:10325000C10333F810301A444B1CD9B23229F5DBC4
:10326000322392FBF3F3054C24F810300022431C68
:10327000D8B20428E8DB10BD38010020B0000020DF
:1032800000BF054A128802F04002002AF9D0C2B2FB
:10329000014B1B1D1A807047003801402DE9F04793
:1032A000A348007800287AD0A248A3490A6802609F
:1032B0004A6842600A890281897A817200209C49A9
:1032C00008709D480078552869D19B48407851285E
:1032D00004D0522864D053287ED1C4E0954989781F
:1032E000944AD27841EA022108B2FDF758F98046A3
:1032F0000022924BFDF7DBF806460022904BFDF7CB
:1033000064F80446FDF7B4F98E49086089490979E3
:10331000884A527941EA022108B2FDF740F9804615
:103320000022864BFDF7C3F806460022844BFDF7CA
:103330004CF80446FDF79CF9824948607D4989793B
:103340007C4AD27941EA022108B2FDF728F9804689
:1033500000227A4BFDF7ABF806460022784BFDF7CA
:1033600034F80446FDF784F9764988607149097A92
:10337000704A527A41EA022108B2FDF710F98046FC
:103380000022714BFDF793F8064600226F4BFCF7C5
:1033900075FF0446FDF76CF96D490860C5E0C5E0AE
:1033A00064498978634AD27841EA022108B2FDF77C
:1033B000F6F880460022614BFDF779F806460022B8
:1033C000644BFDF702F80446FDF752F962490860C4
:1033D00058490979574A00E0A6E0527941EA0221AA
:1033E00008B2FDF7DCF880460022544BFDF75FF889
:1033F00006460022574BFCF7E8FF0446FDF738F974
:10340000554948604B4989794A4AD27941EA0221B3
:1034100008B2FDF7C4F806460022484BFDF747F80E
:10342000044600224B4BFCF7D0FF8046FDF720F905
:10343000494988603F49097A3E4A527A41EA022165
:1034400008B2FDF7ACF8804600223F4BFDF72FF89D
:10345000064600223D4BFCF711FF0446FDF708F934
:103460003B49086061E033498978324AD27841EAC1
:10347000022108B2FDF793F8064600222F4BFDF714
:1034800016F804460022354BFCF79FFF8046FDF7F7
:10349000EFF83349086027490979264A527941EA09
:1034A000022108B2FDF77BF880460022234BFCF78F
:1034B000FEFF06460022294BFCF787FF0446FDF776
:1034C000D7F8274948601B4989791A4AD27941EAD5
:1034D000022108B2FDF763F806460022174BFCF7FD
:1034E000E6FF044600221D4BFCF76FFF8046FDF708
:1034F000BFF81B4988600F49097A0E4A527A41EA9F
:10350000022108B2FDF74BF8064600220E4BFCF7ED
:10351000CEFF044600220D4BFCF7B0FE8046FDF7BF
:10352000A7F80B49086000E000BF00BFBDE8F087C6
:10353000B8000020DE020020C80200200000E040A9
:1035400000003040EC020020004075400020424066
:10355000C400002000409F40F80200200080664028
:1035600004030020FDF756FC4FF4A060FEF774FA48
:103570004FF4E13000F07AF84FF4E13000F01AF83F
:10358000FEF78EF8FEF78CFBFEF7EEF800BFFEF7B5
:10359000C3F80028FBD1FDF72DFEFEF7B3F8FDF7C9
:1035A000D1F9FDF71BFAFEF781F9FEF725FD00BF03
:1035B000FEE7000010B586B0044601218804FEF73E
:1035C000C9FA01210820FEF7D5FA01210846FEF7C5
:1035D000D1FA4FF48060ADF8140018208DF8170070
:1035E00003208DF8160005A91E48FDF70BFF4FF4C8
:1035F0000060ADF8140048208DF8170005A919489F
:10360000FDF700FF27208DF8000000208DF8010055
:103610008DF8020001208DF803006846FEF7E4F9FA
:1036200001940020ADF80800ADF80A00ADF80C00D8
:10363000ADF810000C20ADF80E0001A90A48FFF704
:10364000A7F8012240F225510748FFF77BF8012136
:103650000548FFF734F840210348FFF727F806B084
:1036600010BD0000000C01400048004010B586B0BD
:103670000446012144F20400FEF77CFA4FF4007086
:10368000ADF8140003208DF8160018208DF81700EF
:1036900005A91C48FDF7B6FE4FF48060ADF8140094
:1036A00004208DF8170005A91648FDF7ABFE25206C
:1036B0008DF8000003208DF801008DF80200012034
:1036C0008DF803006846FEF78FF901940020ADF8ED
:1036D0000800ADF80A00ADF80C00ADF810000C20A1
:1036E000ADF80E0001A90848FFF752F8012240F298
:1036F00025510548FFF726F801210348FEF7DFFFB3
:1037000006B010BD0008014000380140AABBCCDD66
:10371000EEAABBCCDDEE0000383700080000002028
:10372000E8000000E028000820380008E800002039
:10373000F0060000F028000800A24A040000000083
:103740000000000001020304060708090000964378
:103750000000803F000000000000A04100000000C9
:10376000000048420000A041000000000000484264
:103770000000000000000000000000000000000049
:103780000000000000000000000000000000000039
:103790000000000000000000000000000000000029
:1037A0000000000000000000000000000000000019
:1037B0000000000000000000000000000000000009
:1037C00000000000000000000000000000000000F9
:1037D000000000009A99D93F00000000CDCCCC3DFC
:1037E00000000000000000000000000000000000D9
:1037F0000000FF00AA0052000000000000000000CE
:1038000000000000000000000000000000000102B5
:103810000304010203040607080902040608000065
:0400000508000145A9
:00000001FF
