:020000040800F2
:10000000B8070020450100088F13000815130008E9
:100010004D130008470A00082B24000800000000C8
:10002000000000000000000000000000091B0008A4
:10003000ED0B000800000000391800087D1C0008C6
:100040005F0100085F0100085F0100085F01000810
:100050005F0100085F010008AD0D0008050E0008F3
:100060005F0100085F0100085F0100085F010008F0
:100070005F0100085F0100085F0100085F010008E0
:100080005F0100085F0100085F0100085F010008D0
:100090005F0100085F0100085F010008610E0008B1
:1000A0005F010008451D00085F0100085F010008AE
:1000B0005F0100085F0100085F0100085F010008A0
:1000C0005F0100085F0100085F0100085F01000890
:1000D0005F010008792100085F0100080122000883
:1000E0005F0100085F0100085F0100085F01000870
:1000F0005F0100085F0100085F0100085F01000860
:100100005F0100085F0100085F0100085F0100084F
:100110005F0100085F0100085F0100085F0100083F
:100120005F0100085F0100085F0100085F0100082F
:10013000DFF80CD000F0E2FA00480047152700086D
:10014000B80700200648804706480047FEE7FEE75C
:10015000FEE7FEE7FEE7FEE7FEE7FEE7FEE7FEE777
:10016000811C000831010008F0B480EA0102D40FBC
:100170004200B2EB410F02D20246084611464A0045
:1001800042D0C30DDDB2C1F3C752AD1A202D35DA0E
:10019000C1F3160141F4000204B15242C5F1200638
:1001A00002FA06F12A411044B3EBD05F23D0C4B168
:1001B000012DA0EBC35009DCF0BC4FF0004202EA75
:1001C000C352DBB200F5000000F00CBA400000F1B1
:1001D000807000EBC350A0F1807040EAD1704900FC
:1001E00009E0490841EAC071A0EBC35000F50000E6
:1001F000400800EBC350F0BC00F0EBB961420122B3
:1002000002EB4101001BF6E7F0BC704781F00041B2
:10021000AAE780F00040A7E780EA010210B502F0EB
:100220000043400022D04A001FD0010E01EB1261B2
:10023000C0F35600C2F3560240F4000042F400023C
:10024000A0FB022000047F39140400D0401C50EAB7
:10025000124001D44000491EC2B20C0604EBD0107B
:10026000401C4008802A02D003E0002010BD20F08E
:100270000100002900DA0020184310BD2DE9FE4FCF
:10028000804681EA0300C00F0C46009021F0004137
:1002900023F00045B8EB0200A94105D240462146B3
:1002A00090461C460B46024623F00040104347D0C0
:1002B000270DC7F30A00C3F30A510290401A0190B8
:1002C00040286BDAC3F3130040F4801B0098924679
:1002D00020B10023D2EB030A63EB0B0B01985946C4
:1002E000C0F14002504600F043F906460D46504624
:1002F0005946019A00F05BF910EB080061410024B7
:1003000087EA115284EAE7731A4340D0009A62B335
:10031000019A012A4FEA075215DC001B61EB02012A
:100320004FF0004202EA0752CDE90042001C41F5BD
:10033000801132462B4600F092F903B0BDE8F08FF1
:1003400040462146F9E7001B61EB0201001C41F524
:10035000801300185B412018A2F5001747EB03013A
:1003600040EAD570B6196D4111E06D084FEA3606C6
:1003700045EAC0754FEA0752001B61EB0201001C01
:1003800041F5801149084FEA3000001951413246C9
:100390002B4603B0BDE8F04F00F052B9009801229F
:1003A00040000023D0EB020263EBE073009821468B
:1003B0004FEAE074B8EB000061EB0401E9E783F079
:1003C00000435BE781F0004158E72DE9F04D81EAF9
:1003D000030404F0004B21F0004514464FF0000ADE
:1003E00023F0004150EA050220D054EA01021DD05A
:1003F000C5F30A570246C5F31303C1F31300C1F353
:100400000A5640F4801543F48013A7EB0608101B2E
:10041000D64608F2FD3873EB050002D308F1010857
:1004200001E092185B41B8F1000F03DA00200146A9
:10043000BDE8F08D00204FF48011064684460EE0A2
:10044000171B73EB050705D3121B63EB050306436C
:100450004CEA010C49084FEA300092185B4150EA1F
:100460000107EDD152EA030012D082EA040083EAC8
:100470000501084305D0101BAB4106D20122002321
:1004800006E000224FF0004302E06FF0010253103B
:100490001AEB06004CEB085110EB0A0041EB0B0184
:1004A000BDE8F04D00F0CCB8C10F80EAE070084420
:1004B000CA079623002100F095B80EB540F23341EB
:1004C00002910021CDE900110A460B4600F0C7F861
:1004D00003B000BD00F0004220F00040C10DC0F3A9
:1004E000160040F400007F2901DA002070479629A9
:1004F00003DCC1F19601C84001E096398840002A2A
:10050000F4D04042704770B5C1F30A5201F0004583
:100510000024C1F3130140F2FF3341F480119A42E9
:1005200001DA002070BD40F233439A42A2F2334216
:1005300003DC524200F02BF800E090402C43F1D055
:10054000404270BD30B50B460146002020220124F8
:1005500009E021FA02F59D4205D303FA02F5491B91
:1005600004FA02F52844151EA2F10102F1DC30BDA7
:10057000202A04DB203A00FA02F100207047914063
:10058000C2F1200320FA03F3194390407047202A58
:1005900004DB203A21FA02F00021704721FA02F32D
:1005A000D040C2F120029140084319467047202AEA
:1005B00006DBCB17203A41FA02F043EAE07306E08B
:1005C00041FA02F3D040C2F120029140084319469B
:1005D00070470029A8BF7047401C490008BF20F0A1
:1005E0000100704710B4B0FA80FC00FA0CF050EA39
:1005F000010404BF10BC704749B1CCF1200421FABA
:1006000004F411FA0CF118BF012121430843A3EBB4
:100610000C01CB1D4FEA00614FEA102042BF0020C1
:1006200010BC704700EBC35010440029A4BF10BC9D
:100630007047401C490008BF20F0010010BC704703
:1006400010B5141E73F1000408DA401C41F10001DA
:1006500092185B411A4301D120F0010010BD2DE931
:10066000F04D92469B4611B1B1FA81F202E0B0FA28
:1006700080F220329046FFF77BFF04460F4640EAA7
:100680000A0041EA0B0153465A46084313D011466B
:1006900053EA010019D0C8F140025046FFF777FF36
:1006A00005460E46504659464246FFF761FF08434D
:1006B00005D0012004E020463946BDE8F08D002039
:1006C000054346EAE0762C4337430A986305E40A7B
:1006D000A0EB08000022FD0A44EA47540A3002D584
:1006E00000200146E9E7010510196941DDE90845E7
:1006F00000196941BDE8F04DA2E70000064C074D26
:1007000006E0E06840F0010394E8070098471034E1
:10071000AC42F6D3FFF710FD08280008282800088F
:1007200008B50121084601F095F801214FF4067043
:1007300001F0B0F82020ADF8000010208DF8030083
:1007400003208DF802006946194800F049FD202178
:10075000174800F0D0FD4020ADF8000010208DF8C3
:10076000030003208DF802006946114800F038FDAF
:1007700040210F4800F0BFFD8020ADF800001020A0
:100780008DF8030003208DF802006946084800F048
:1007900027FD8021064800F0AEFD0F20ADF80000D7
:1007A00000208DF803006946024800F019FD08BDDD
:1007B000000C01400010014000B591B03D4800F030
:1007C00051F93D4806903D480790002008900A9056
:1007D00080200B90C82009904FF480700C9080000E
:1007E0000D9020200E9000020F900020109006A97E
:1007F000304800F0DDF901212E4800F026F90020F4
:10080000019001208DF808008DF809004FF4602058
:1008100003900020049004208DF8140001A92648BC
:100820004C3800F077F84FF4004001F007F8072348
:1008300001220A2120484C3800F094F807230222B4
:100840000B211D484C3800F08DF8072303220C21A2
:1008500019484C3800F086F8072304220D21164869
:100860004C3800F07FF8012113484C3800F033F881
:10087000012111484C3800F023F80F484C3800F0A3
:10088000CDF800BF0C484C3800F03AF80028F9D1F8
:1008900009484C3800F0D2F800BF07484C3800F047
:1008A00025F80028F9D1012103484C3800F0BBF8A5
:1008B00011B000BD080002404C2401401801002086
:1008C00021B1826842F00102826003E0826822F076
:1008D00001028260704721B1826842F480728260B6
:1008E00003E0826822F48072826070470146002033
:1008F0008A6802F004020AB1012000E0002070477B
:10090000014600208A6802F008020AB1012000E0D6
:100910000020704730B502460020002350680F4C7D
:1009200020400D790C6844EA05242043506090680B
:100930000B4C2040D1E902542C434D7944EA450444
:1009400020439060D06A20F470000C7C641EE4B2F6
:10095000234340EA0350D06230BD0000FFFEF0FFA9
:10096000FDF7F1FFF0B504460D4600200021092DEA
:1009700011DDE068A5F10A0606EB4607072606FA30
:1009800007F18843A5F10A0606EB460603FA06F1CD
:100990000843E0600CE0206905EB4507072606FAEE
:1009A00007F1884305EB450603FA06F10843206189
:1009B000072A0FDA606B561E06EB86071F2606FA1B
:1009C00007F18843561E06EB860605FA06F1084332
:1009D000606322E00D2A0FDA206BD61F06EB860734
:1009E0001F2606FA07F18843D61F06EB860605FA8E
:1009F00006F10843206310E0E06AA2F10D0606EB61
:100A000086071F2606FA07F18843A2F10D0606EBBA
:100A1000860605FA06F10843E062F0BD816841F000
:100A200008018160704721B1826842F4A0028260AF
:100A300003E0826822F4A00282607047816841F07E
:100A400004018160704700BFFEE721B1026842F0F7
:100A50000102026004E002684FF6FE731A40026071
:100A60007047000001684FF6FE72114001600021DE
:100A7000016041608160C1604B49884208D14A49A8
:100A80000839496841F00F01474A083A51608AE045
:100A900045491431884208D143490839496841F031
:100AA000F001414A083A51607DE03F4928318842CF
:100AB00008D13D490839496841F470613A4A083A19
:100AC000516070E038493C31884208D136490839D4
:100AD000496841F47041344A083A516063E0324950
:100AE0005031884208D130490839496841F47021B1
:100AF0002D4A083A516056E02B496431884208D1AA
:100B000029490839496841F47001274A083A516077
:100B100049E025497831884208D123490839496894
:100B200041F07061204A083A51603CE01F49884218
:100B300006D1011F096841F00F01021F116032E068
:100B40001A491431884208D11849091F096841F02F
:100B5000F001164A121F116025E01449283188421D
:100B600008D11249091F096841F470610F4A121F28
:100B7000116018E00D493C31884208D10B49091F2A
:100B8000096841F47041094A121F11600BE00749DE
:100B90005031884207D10549091F096841F4702185
:100BA000024A121F11607047080002400804024008
:100BB00010B50022026847F6F0739A430C6A8B68FE
:100BC00023430C6923434C6923438C692343CC6939
:100BD00023434C6A23438C6A23431A430260CB6845
:100BE00043600B6883604B68C36010BD70470000B2
:100BF00010B56FF0040001F02DF80A4800680A49AA
:100C0000B0FBF1F0094908700846007800EB40019C
:100C1000C1EBC0104FF6FF7101EAC0000449088023
:100C200010BD00000000002000127A00A800002083
:100C3000AA0000202DE9F05F0020504908605049CB
:100C4000C1F898014D4908310860052001F00EFDFA
:100C500000BF80214B4801F01BFB0028F9D001F0B8
:100C60002BFD0020484908802FE04849464A128859
:100C700031F8120000F043FB4549434A128821F83D
:100C80001200414A128831F81200FFF716FC824622
:100C90000022404BFFF799FB80463F4A3F4BFFF74E
:100CA0008EFB064632460B463D483E49FFF78DFB1C
:100CB0000446FFF728FC3C49334A128821F8120009
:100CC00031480088401C304908802F48008804289B
:100CD000CBDB01202949086000202949C1F898018F
:100CE000264908310860052001F0C0FC00BF8021C2
:100CF000244801F0CDFA0028F9D001F0DDFC0020F5
:100D00002149088033E021491F4A128831F8120036
:100D100000F0F5FA1E4A1C490988091D22F8110045
:100D200019490988091D32F81100FFF7C6FB06466C
:100D30000022184BFFF749FB0446174A174BFFF7F1
:100D40003EFB804642460B4615481649FFF73DFBE1
:100D50008246FFF7D8FB81B2134A0B480088001D7A
:100D600022F8101008480088401C074908800648EF
:100D700000880428C7DBBDE8F09F00009481214271
:100D800000802142003801407C0000208E000020BD
:100D9000D800002000005940A4703D0AD7A3C03FEE
:100DA00014AE47E17A143840E800002001201249CF
:100DB00008601248006878B91048001D006828B91A
:100DC0000F480068401C0E49086014E00C48006899
:100DD000401E0B4908600EE00848001D006828B955
:100DE00007480068401E0649086004E0044800689F
:100DF000401C0349086070471404014000812142EF
:100E00006C00002002201349086013480068012884
:100E10000FD11148001F006828B910480068401C15
:100E20000E49086014E00D480068401E0B49086038
:100E30000EE00948001F006828B908480068401EF5
:100E40000649086004E005480068401C0349086042
:100E50007047000014040140048121426C0000200E
:100E600010B5402000F056F8F8B14020264908603F
:100E70002648006801280FD12448001D006828B9C1
:100E800023480068401C2249086014E0204800689C
:100E9000401E1F4908600EE01C48001D006828B96C
:100EA0001B480068401E1A49086004E018480068A2
:100EB000401C17490860802000F02CF818B38020EF
:100EC000114908601148001D006870B90F4800689A
:100ED00028B90F480068401C0D49086013E00C4811
:100EE0000068401E0A4908600DE00848006828B9FB
:100EF00007480068401E0649086004E0044800688E
:100F0000401C0349086010BD14040140180121422F
:100F100070000020014600200022074B1B6803EAF6
:100F20000102054B14331B680B4013B10AB10120B9
:100F300000E0002070470000000401400021234928
:100F40008279002A3AD00A46126803689A430B460F
:100F50001A600A1D126803689A430B1D1A60027911
:100F600011440A6803681A430A60184A0832126872
:100F700003689A43154B08331A601A1D12680368F8
:100F80009A43124B0C331A604279102A0ED11A1F61
:100F9000126803681A430D4B08331A601A1D126851
:100FA00003681A43094B0C331A600DE00749427974
:100FB00011440A6803681A430A6005E00279114483
:100FC0000A6803689A430A60704700000004014001
:100FD00010B500F007F800F03DF800F073F800F0ED
:100FE000A7F810BD1FB50121084600F053FC0121F0
:100FF000082000F04FFC0120ADF80C0048208DF8CF
:101000000F0003A9124800F0EBF80021012000F0C6
:10101000C7F80120019000208DF8080010208DF8FD
:10102000090001208DF80A0001A8FFF787FF0620BC
:101030008DF8000001208DF8010000208DF80200DD
:1010400001208DF80300684600F00AFB1FBD000078
:10105000000C01401FB50121084600F01BFC0121D6
:10106000082000F017FC0220ADF80C0048208DF895
:101070000F0003A9124800F0B3F80121084600F060
:101080008FF80220019000208DF8080010208DF8C4
:10109000090001208DF80A0001A8FFF74FFF072083
:1010A0008DF8000001208DF8010002208DF802006B
:1010B00001208DF80300684600F0D2FA1FBD000041
:1010C000000C01401FB50121084600F0E3FB01219F
:1010D000042000F0DFFB4020ADF80C0048208DF824
:1010E0000F0003A9114800F07BF80621002000F052
:1010F00057F84020019000208DF8080010208DF84E
:10110000090001208DF80A0001A8FFF717FF17203A
:101110008DF8000001208DF801008DF802008DF897
:101120000300684600F09CFA1FBD00000008014063
:101130001FB50121084600F0ADFB0121042000F09D
:10114000A9FB8020ADF80C0048208DF80F0003A902
:10115000124800F045F80721002000F021F8802017
:10116000019000208DF8080010208DF80900012062
:101170008DF80A0001A8FFF7E1FE17208DF80000A6
:1011800001208DF8010003208DF8020001208DF868
:101190000300684600F064FA1FBD0000000801402B
:1011A00030B500228B071C0F0F2303FA04F20B4B00
:1011B0008C1053F824309343084C8D1044F825309C
:1011C00023468C1053F824308C07240F00FA04F4C3
:1011D0002343024C8D1044F8253030BD08000140F7
:1011E0002DE9F041024600250026002000230024BE
:1011F000002791F803C00CF00F0591F803C00CF024
:10120000100CBCF1000F03D091F802C04CEA0505A8
:1012100091F800C0BCF1000F31D0146800202BE021
:101220004FF0010C0CFA00F3B1F800C00CEA030611
:101230009E4220D183004FF00F0C0CFA03F7BC4301
:1012400005FA03FC4CEA040491F803C0BCF1280F32
:1012500006D14FF0010C0CFA00FCC2F814C00AE0F1
:1012600091F803C0BCF1480F05D14FF0010C0CFA06
:1012700000FCC2F810C0401C0828D1D31460B1F89B
:1012800000C0BCF1FF0F34DD546800202EE000F1F7
:10129000080C4FF0010808FA0CF3B1F800C00CEA92
:1012A00003069E4221D183004FF00F0C0CFA03F786
:1012B000BC4305FA03FC4CEA040491F803C0BCF1FA
:1012C000280F05D100F1080C08FA0CF8C2F81480B8
:1012D00091F803C0BCF1480F07D100F1080C4FF0A2
:1012E000010808FA0CF8C2F81080401C0828CED378
:1012F0005460BDE8F081416170470161704702466A
:101300004FF4A57002FB00F1C81701EB1050C0F3B9
:101310000F30704700BFFEE708B50121402000F004
:10132000B9FA4020ADF8000010208DF8030003202A
:101330008DF8020069460448FFF752FF4021024839
:10134000FFF7DBFF08BD00000018014000BFFEE70B
:1013500008B50121042000F09DFA0F20ADF800002F
:1013600018208DF8030003208DF80200694602481A
:10137000FFF736FF08BD00000008014010B5FFF779
:10138000E7FF002141F61F4000F000FA10BD704752
:101390001CB511A103C9CDE90001082000F068FBCC
:1013A00005226946302000F025F905226946102003
:1013B00000F084F8002406E01DF80400A52800D001
:1013C00003E0601CC4B2052CF6DB00BF052C01D085
:1013D00001201CBD0020FCE7A5A5A5A5A5000000D7
:1013E00000B587B001214FF4847000F053FA4FF438
:1013F0008050ADF8180010208DF81B0003208DF8E8
:101400001A0006A92848FFF7EBFE4FF48051264842
:10141000FFF773FFC020ADF8180006A92348FFF7B7
:10142000DFFE4FF48070ADF8180028208DF81B0007
:1014300006A91E48FFF7D4FE4FF4E0711B48FFF7E2
:101440005AFF00F0A1FA0021194800F025FB002006
:10145000ADF804004FF48270ADF806000020ADF83E
:101460000800ADF80A00ADF80C004FF40070ADF8BC
:101470000E001820ADF810000020ADF81200072073
:10148000ADF8140001A90A4800F020FB012108482A
:1014900000F002FB00200749086001200649C1F85E
:1014A0009C0107B000BD0000000C0140002001407D
:1014B0000038004098012442000024422DE9F04108
:1014C00007460D46164600200A490860384600F0D7
:1014D000A5FA8046002405E0FF2000F09FFA285579
:1014E000601CC4B2B442F7DB0120024908604046E8
:1014F000BDE8F0819C01244270B5044600200749F4
:101500000860204600F08AFAFF2000F087FA0546BE
:1015100001200349C1F89C01284670BD9C0124426A
:101520000000244210B50020144908600522144927
:10153000302000F05FF8052212492A2000F05AF806
:101540000121212000F074F80121222000F070F820
:101550001A21242000F06CF80021252000F068F802
:101560000F21262000F064F80E21202000F060F802
:1015700001200549C1F8980110BD000098012442DE
:10158000FC270008012800080000244270B5054629
:10159000102000F06DFA002014490860202229462E
:1015A000A02000F027F801201149C1F8980100BFE0
:1015B0000E48783800680028FAD10720FFF79CFF12
:1015C00004462146272000F033F804F0100028B12B
:1015D000FF21E12000F02CF8102070BD04F0200065
:1015E00008B12020F9E7FF20F7E700009801244226
:1015F000000024422DE9F04107460C461546002024
:101600000A490860384600F009FA8046002605E0DD
:1016100014F8010B00F002FA701CC6B2AE42F7DB00
:101620000120024908604046BDE8F0819C01244247
:1016300070B505460C46002007490860284600F0B2
:10164000EDF90646204600F0E9F901200349C1F80A
:101650009C01304670BD00009C01244200002442E1
:1016600070B5002100230F22C47804B3154C246800
:1016700004F4E064C4F5E064210AC1F10403CA4043
:10168000447804FA03F184781440214309010E4C94
:101690000678A155047804F01F050124AC400578B4
:1016A0006D11AD0005F1E025C5F8004109E00478B1
:1016B00004F01F050124AC40044D0678761145F86E
:1016C000264070BD0CED00E000E400E080E100E0A9
:1016D00002490143024A1160704700000000FA0508
:1016E0000CED00E02DE9F05F04460D46281B204973
:1016F000086020480068096808441E4908601C49C1
:1017000009681D4A1268881AFEF7CEFE81461B48FA
:1017100001684846FEF780FD074616480068FEF758
:10172000C3FE8346164801685846FEF775FD81469C
:101730000F480068FEF7B8FE834612480168584615
:10174000FEF76AFD82464946FEF70EFD80463946A1
:10175000FEF70AFD0646FEF7BDFE0B490860044889
:10176000006805490860084800684042BDE8F09FED
:101770003800002044000020400000201C00002011
:1017800018000020140000203C00002030B587B075
:1017900005460C460121082000F06CF8ADF8145005
:1017A000ADF810400020ADF81600ADF8120004A905
:1017B000204800F08FFC6020ADF800000120ADF85B
:1017C00002000020ADF8080069461A4800F01EFB30
:1017D0000821184800F066FB6946164800F06CFBCB
:1017E0000821144800F0BAFB6946124800F0C4FB17
:1017F0000821104800F010FC69460E4800F016FC65
:1018000008210C4800F050FC01210A4800F0D7FAEA
:101810000021084800F055FC0021064800F053FC68
:101820000021044800F051FC0021024800F04FFC68
:1018300007B030BD000C004070470000014600209A
:10184000034A506820F4404008435060704700004D
:101850000010024029B1064A52690243044B5A6102
:1018600004E0034A52698243014B5A617047000009
:101870000010024029B1064AD2690243044BDA61E2
:1018800004E0034AD2698243014BDA6170470000E9
:101890000010024029B1064A92690243044B9A6142
:1018A00004E0034A92698243014B9A617047000049
:1018B0000010024030B500210022002400232D4DED
:1018C0006D6805F00C0121B1042905D0082923D148
:1018D00005E0294D056022E0274D05601FE0254DFC
:1018E0006D6805F47012234D6D6805F4803402258F
:1018F00005EB92421CB9214D554305600BE01D4D8F
:101900006D6805F400351DB11C4D5543056002E0BE
:10191000194D5543056002E0174D056000BF00BF3B
:10192000144D6D6805F0F0010909154D6B5C0568F3
:10193000DD4045600F4D6D6805F4E061090A104D0A
:101940006B5C4568DD4085600A4D6D6805F460514B
:10195000C90A0B4D6B5C4568DD40C560054D6D687F
:1019600005F44041890B074D6B5CC568B5FBF3F589
:10197000056130BD0010024000127A0000093D00F0
:10198000B2000020C200002000B587B0012108206D
:10199000FFF780FF01218803FFF76CFF4FF46040E1
:1019A000ADF8180018208DF81B0003208DF81A00E0
:1019B00006A91848FFF714FC4FF460411548FFF7DB
:1019C0009CFC0020ADF804004FF48270ADF80600D6
:1019D0000020ADF808000220ADF80A000120ADF8A3
:1019E0000C004002ADF80E003820ADF810000020C9
:1019F000ADF812000720ADF8140001A9064800F068
:101A000065F80121044800F047F8FF2000F006F8CF
:101A100007B000BD000C01400038004070B505461D
:101A2000002405E0601CC4B2C82C01DD002070BD9C
:101A300002210E4800F03CF80028F3D029460B485C
:101A400000F042F8002405E0601CC4B2C82C01DD9F
:101A50000020ECE70121054800F02AF80028F3D027
:101A6000024800F02EF8C0B2E1E700000038004064
:101A700010B50446074800884FF6C771084005496D
:101A8000088008460088204308800121014800F0B2
:101A900003F810BD0038004021B1028842F0400236
:101AA000028004E002884FF6BF731A40028070473C
:101AB0000246002013890B400BB1012000E00020FA
:101AC00070470146888970478181704710B50022B0
:101AD000028802F441520B884C8823438C882343AC
:101AE000CC8823430C8923434C8923438C8923438B
:101AF000CC8923431A430280838B4FF2FF74234027
:101B000083830B8A038210BD704710B500F002F882
:101B100010BD00000CB50020019000903348006813
:101B200040F480303149086000BF3048006800F45C
:101B3000003000900198401C0190009818B901985D
:101B4000B0F5A06FF1D12948006800F4003010B161
:101B50000120009001E0002000900098012843D16E
:101B60002348006840F010002149086008460068DA
:101B700020F0030008600846006840F0020008609A
:101B80001A48406819494860084640684860084655
:101B9000406840F4806048600846406820F47C104B
:101BA00048600846406840F4E8104860084600680D
:101BB00040F08070086000BF0C48006800F00070C2
:101BC0000028F9D00948406820F003000749486020
:101BD0000846406840F00200486000BF0348406883
:101BE00000F00C000828F9D10CBD000000100240E4
:101BF00000200240002808DA4FF4E151084A118021
:101C000000F5E151121D118008E04FF4E151044A42
:101C1000121D1180C0F5E151121F118070470000A4
:101C20003C0C0040002808DA4FF4E151084A1180CA
:101C300000F5E151121F118008E04FF4E151044A10
:101C4000121F1180C0F5E151121D11807047000074
:101C5000380C0040042808D14FF0E021096941F018
:101C600004014FF0E022116107E04FF0E021096923
:101C700021F004014FF0E02211617047704700002D
:101C800010B51348006840F001001149086008468B
:101C90004068104908400E494860084600680E49EF
:101CA00008400B4908600846006820F4802008605E
:101CB0000846406820F4FE0048604FF41F0088602A
:101CC000FFF723FF4FF000600449086010BD0000DB
:101CD000001002400000FFF8FFFFF6FE08ED00E0F4
:101CE0001FB50121C802FFF7D5FD41F28730ADF8DD
:101CF00008008F20ADF804000020ADF80A00ADF810
:101D000006008DF80C0001A90D4800F0E3F901224E
:101D100011460B4800F070F819208DF800000020E3
:101D20008DF8010003208DF8020001208DF80300DA
:101D30006846FFF795FC0121014800F040F81FBDFF
:101D4000002C014010B50121144800F044F820B3E4
:101D5000FEF770FF00F05AFC1148FFF717FC11491D
:101D600048881421FFF7BEFC0F4908600F4908603E
:101D70000C4841880D4802680DA000F07DFB00F082
:101D800057FB0A480068FFF735FF07480068FFF770
:101D900049FF0121014800F00FF810BD002C01405F
:101DA000F8000020E80000208800002084000020C7
:101DB00025642025640D0A00CA430282704721B1C0
:101DC000028842F00102028004E002884FF6FE73AE
:101DD0001A400280704730B50246002000230024DC
:101DE000158A05EA0103958905EA010413B10CB1CE
:101DF000012000E0002030BD1AB183890B438381AC
:101E000002E083898B4383817047000070B5002412
:101E100000220023058C4FF6FE7635400584028CA7
:101E20008388048B4FF68F752C40B51E2C400D888F
:101E30002C43751E2A400D892A434D882A43144D90
:101E4000A8420BD0134DA84208D0134DA84205D08C
:101E5000124DA84202D0124DA84213D14FF6F77589
:101E60002A404D892A434FF6FB752A408D882A4324
:101E70004FF6FF652B404FF6FF552B408D892B43C6
:101E8000CD892B4383800483CD888586028470BDF1
:101E9000002C01400034014000400140004401405A
:101EA000004801400A460021018B4FF6F7731940A4
:101EB000114301837047000070B500240022002305
:101EC000058C4FF6EF7635400584028C8388048BB1
:101ED00048F6FF752C404FF6FF452C400D884FF615
:101EE000FF7606EA05252C434FF6DF752A400D895B
:101EF00006EA05152A434D8806EA05152A43154DBD
:101F0000A84202D0144DA8421DD14FF67F752A4039
:101F10004D894FF6FF7606EA05152A434FF6BF7541
:101F20002A408D8806EA05152A434FF6FF352B40D7
:101F30004FF2FF752B408D8906EA85052B43CD892D
:101F400006EA85052B4383800483CD8805870284B8
:101F500070BD0000002C0140003401400A46002101
:101F6000018B4FF2FF7319404FF6FF7303EA022310
:101F7000194301837047000070B50024002200233C
:101F8000058C4FF6FF6635400584028C8388848B70
:101F90004FF68F752C404FF6FC752C400D882C4366
:101FA0004FF6FF552A400D894FF6FF7606EA0525C4
:101FB0002A434D8806EA05252A43154DA84202D03A
:101FC000144DA8421DD14FF2FF752A404D894FF69E
:101FD000FF7606EA05252A434FF6FF352A408D880D
:101FE00006EA05252A434EF6FF752B404DF6FF7590
:101FF0002B408D8906EA05152B43CD8906EA051588
:102000002B4383808483CD888587028470BD000044
:10201000002C0140003401400A460021818B4FF61C
:10202000F7731940114381837047000070B5002297
:1020300000230024058C4EF6FF7635400584038C82
:102040008488828B48F6FF752A404FF6FF452A4068
:102050000D884FF6FF7606EA05252A434DF6FF75F3
:102060002B400D8906EA05352B434D8806EA0535D8
:102070002B430B4DA84202D00A4DA84208D14BF683
:10208000FF752C408D894FF6FF7606EA85152C43A7
:1020900084808283CD88A0F84050038470BD000006
:1020A000002C0140003401400A460021818B4FF290
:1020B000FF7319404FF6FF7303EA0223194381832C
:1020C0007047818670470187704781877047A0F805
:1020D00040107047002202881D4B98420ED01D4BC5
:1020E00098420BD0B0F1804F08D01B4B984205D0DE
:1020F0001A4B984202D01A4B984204D14FF68F7374
:102100001A404B881A43174B984207D0164B9842F7
:1021100004D04FF6FF431A40CB881A4302808B88C5
:1021200083850B8803850A4B98420BD0094B984254
:1021300008D00E4B984205D00D4B984202D00D4B63
:10214000984201D10B7A03860123838270470000F5
:10215000002C014000340140000400400008004011
:10216000000C0040001000400014004000400140FE
:10217000004401400048014010B540F225511D487F
:1021800000F093F810B31B4800F04AF9C4B21A48A3
:10219000008800F40040C8B91748008800F4804067
:1021A00060B10A2C03D000201349088020E01248B7
:1021B000008840F400401049088019E00D2C06D139
:1021C0000D48008840F480400B49088010E00A4820
:1021D0000088C0F30D0009490C5407480088401CD2
:1021E0000549088008460088C72801DD00200880CE
:1021F00010BD000000380140B0000020F0020020B7
:1022000010B540F22551174800F04FF838B3154883
:1022100000F006F91449154A1278885413480078DA
:1022200020B908460078552800D010BD0F48007826
:10223000401C0E490870084600780B280FD10C4846
:1022400009490A6802604A6842600A890281897AFB
:10225000817200200549087001200649087000BFFE
:10226000E3E7000000480040B3020020990000208E
:10227000A80200209800002021B1828942F4005277
:10228000828104E082894DF6FF731A408281704793
:1022900002460020B1F5007F00D100BF13880B403B
:1022A0000BB1012000E00020704770B50246002409
:1022B00000230025002040F66A16B14200D100BF7D
:1022C000C1F3421501F01F03012606FA03F3012DA5
:1022D00002D19689334006E0022D02D1168A33409E
:1022E00001E0968A33400C12012606FA04F416889F
:1022F000344013B10CB1012000E0002070BDF0B5F6
:102300000346002400260025002040F66A17B94243
:1023100000D100BF1846C1F3421401F01F06012787
:1023200007FA06F5012C01D10C3004E0022C01D192
:10233000103000E014301AB107682F43076002E044
:102340000768AF430760F0BD2DE9F04786B005464A
:102350000E460024A24600BFA1460027B08900B166
:1023600000BF2F462C8A4CF6FF700440F0880443CF
:102370002C82AC894EF6F3100440B08831890843B2
:10238000718908430443AC81AC8A4FF6FF40044096
:10239000B0890443AC8201A8FFF78CFA1F4887423A
:1023A00002D1DDF810A001E0DDF80CA0A88900F44E
:1023B000004040B10AEBCA0000EB0A103168490046
:1023C000B0FBF1F807E00AEBCA0000EB0A10316835
:1023D0008900B0FBF1F86420B8FBF0F0040120099B
:1023E000642101FB1089A88900F4004040B132202B
:1023F00000EBC900B0FBF1F000F00700044308E077
:10240000322000EB09106421B0FBF1F000F00F0066
:1024100004432C8106B0BDE8F0870000003801407D
:1024200001468888C0F30800704700BFFEE700003F
:1024300041F6BC300E4909684242914202DA4142FB
:102440000B4A11600A490968814201DD08490860A8
:10245000084909684242914202DA4142054A116044
:1024600004490968814201DD0249086070470000A3
:1024700084000020880000200FB4054B10B503A98C
:10248000044A029800F018F810BC5DF814FB000034
:10249000F9260008AC00002002E008C8121F08C19D
:1024A000002AFAD170477047002001E001C1121FD5
:1024B000002AFBD1704700002DE9FF4F89B09B46F1
:1024C0000446002506E025280BD05A460B99904774
:1024D000641C6D1C20780028F5D10DB02846BDE89D
:1024E000F08F0027B8460122474900E0074314F85F
:1024F000013F203B02FA03F00842F7D120782E2852
:1025000019D114F8010F47F004072A280ED06FF0F4
:102510002F022078A0F1300109290CD808EB88019E
:1025200002EB410100EB0108641CF2E70A98641C0D
:1025300050F8048B0A9020780028CED0642808D068
:10254000692806D075281ED05A460B9990476D1CF5
:1025500058E00A994FF00A0901C90A91002802DAE5
:1025600040422D2102E0390504D52B218DF82010A1
:10257000012103E0F90704D02021F7E78A4608AEDD
:102580000DE00021FAE70A994FF00A0901C90A9102
:10259000F7E74946FDF7D6FF303106F8011D002860
:1025A000F7D1ADEB060000F12009780701D44FF018
:1025B0000108C84502DDA8EB090000E000208046C4
:1025C000002706E008A85A46C05D0B9990476D1C8D
:1025D0007F1C5745F6DB04E030205A460B999047A4
:1025E0006D1CB8F10001A8F10108F5DC05E016F852
:1025F000010B5A460B9990476D1CB9F10001A9F1E6
:102600000109F4DC641C65E70928010010B5154ACE
:1026100052880A2392FBF3F2092A08DD114A5288F4
:1026200092FBF3F403FB14225A320E4B5A800D4AEC
:1026300052880A2392FBF3F403FB14223032D1B206
:10264000084A528892FBF3F23032D0B20422064B91
:102650001A701A46507091700D22DA700A221A719F
:1026600010BD0000E8000020F80000200146114ADB
:1026700012884A434FF0E0235A6100229A611A46B9
:10268000126942F001021A6100BF4FF0E0221069A6
:1026900000F001021AB100F48032002AF5D04FF0A8
:1026A000E022126922F001024FF0E0231A610022B9
:1026B0009A617047AA00002010B50022002014E0A3
:1026C000002107E00A4B03EBC10333F810301A4432
:1026D0004B1CD9B23229F5DB322392FBF3F3054CC4
:1026E00024F810300022431CD8B20428E8DB10BDC7
:1026F000180100208E00002000BF054A128802F059
:102700004002002AF9D0C2B2014B1B1D1A8070474B
:1027100000380140FEF76CFA4FF4A060FEF7D8FFD6
:102720004FF4E13000F01AF8FEF7F6FDFFF72CF950
:10273000FEF756FE00BFFEF72BFE0028FBD1FEF78A
:1027400047FCFEF71BFEFDF7EBFFFEF735F8FEF743
:10275000E9FEFFF7C5FA00BFFEE7000010B586B03E
:102760000446012144F20400FFF794F84FF400708E
:10277000ADF8140003208DF8160018208DF817000E
:1027800005A91C48FEF72CFD4FF48060ADF814003D
:1027900004208DF8170005A91648FEF721FD252015
:1027A0008DF8000003208DF801008DF80200012053
:1027B0008DF803006846FEF753FF01940020ADF842
:1027C0000800ADF80A00ADF80C00ADF810000C20C0
:1027D000ADF80E0001A90848FFF7B6FD012240F24E
:1027E00025510548FFF78BFD01210348FFF744FD04
:1027F00006B010BD0008014000380140AABBCCDD86
:10280000EEAABBCCDDEE0000282800080000002066
:10281000C800000098240008F0280008C800002024
:10282000F0060000A824000800A24A0400000000EE
:102830000000000001020304060708090000164317
:1028400000000000000000000000F0410000000057
:10285000000016440000F041000000000000164493
:102860000000000000000000000000000000000068
:102870000000000000000000000000000000000058
:102880000000000000000000000000000000000048
:102890000000000000000000000000000000000038
:1028A0000000000000000000000000000000000028
:1028B0000000000000000000000000000000000018
:1028C0000000FF00AA00520000000000000000000D
:1028D00000000000000000000000000000000102F5
:1028E00003040102030406070809020406080000A5
:0400000508000145A9
:00000001FF
