:020000040800F2
:10000000A005002045010008910B0008550B0008D1
:100010008D0B0008FD070008131800080000000001
:10002000000000000000000000000000B9110008FE
:100030000108000800000000E90E0008CD120008C9
:100040005F0100085F0100085F0100085F01000810
:100050005F0100085F01000849080008A1080008C6
:100060005F0100085F0100085F0100085F010008F0
:100070005F0100085F0100085F0100085F010008E0
:100080005F0100085F0100085F0100085F010008D0
:100090005F0100085F0100085F010008FD0800081B
:1000A0005F010008951300085F0100085F01000868
:1000B0005F0100085F0100085F0100085F010008A0
:1000C0005F0100085F0100085F0100085F01000890
:1000D0005F010008791500085F010008011600089B
:1000E0005F0100085F0100085F0100085F01000870
:1000F0005F0100085F0100085F0100085F01000860
:100100005F0100085F0100085F0100085F0100084F
:100110005F0100085F0100085F0100085F0100083F
:100120005F0100085F0100085F0100085F0100082F
:10013000DFF80CD000F0F8F900480047C9190008B2
:10014000A00500200648804706480047FEE7FEE776
:10015000FEE7FEE7FEE7FEE7FEE7FEE7FEE7FEE777
:10016000D1120008310100082DE9FE4F804681EAD6
:100170000300C00F0C46009021F0004123F0004521
:10018000B8EB0200A94105D24046214690461C46E4
:100190000B46024623F00040104347D0270DC7F31B
:1001A0000A00C3F30A510290401A019040286BDA0A
:1001B000C3F3130040F4801B0098924620B1002343
:1001C000D2EB030A63EB0B0B01985946C0F14002D6
:1001D000504600F01BF906460D4650465946019A16
:1001E00000F033F910EB08006141002487EA115256
:1001F00084EAE7731A4340D0009A62B3019A012A55
:100200004FEA075215DC001B61EB02014FF0004280
:1002100002EA0752CDE90042001C41F58011324646
:100220002B4600F033F903B0BDE8F08F404621467D
:10023000F9E7001B61EB0201001C41F58013001877
:100240005B412018A2F5001747EB030140EAD57087
:10025000B6196D4111E06D084FEA360645EAC075E2
:100260004FEA0752001B61EB0201001C41F58011AF
:1002700049084FEA30000019514132462B4603B07D
:10028000BDE8F04F00F0F3B80098012240000023D1
:10029000D0EB020263EBE073009821464FEAE07472
:1002A000B8EB000061EB0401E9E783F000435BE792
:1002B00081F0004158E72DE9F04D81EA030404F094
:1002C000004B21F0004514464FF0000A23F0004196
:1002D00050EA050220D054EA01021DD0C5F30A57A6
:1002E0000246C5F31303C1F31300C1F30A5640F4E9
:1002F000801543F48013A7EB0608101BD64608F2BE
:10030000FD3873EB050002D308F1010801E09218F3
:100310005B41B8F1000F03DA00200146BDE8F08D23
:1003200000204FF48011064684460EE0171B73EB45
:10033000050705D3121B63EB050306434CEA010CCA
:1003400049084FEA300092185B4150EA0107EDD1AD
:1003500052EA030012D082EA040083EA050108434E
:1003600005D0101BAB4106D20122002306E000227B
:100370004FF0004302E06FF0010253101AEB060049
:100380004CEB085110EB0A0041EB0B01BDE8F04DBE
:1003900000F06DB80EB540F2334102910021CDE975
:1003A00000110A460B4600F071F803B000BDC1F31E
:1003B0000A5210B5C1F3130140F2FF3341F480112A
:1003C0009A4201DA002010BD40F233439A42A2F271
:1003D000334203DC524200F028F810BD904010BDBB
:1003E00030B50B46014600202022012409E021FA05
:1003F00002F59D4205D303FA02F5491B04FA02F502
:100400002844151EA2F10102F1DC30BD202A04DBD4
:10041000203A00FA02F1002070479140C2F1200317
:1004200020FA03F3194390407047202A04DB203A56
:1004300021FA02F00021704721FA02F3D040C2F104
:1004400020029140084319467047202A06DBCB174B
:10045000203A41FA02F043EAE07306E041FA02F37F
:10046000D040C2F12002914008431946704710B5B0
:10047000141E73F1000408DA401C41F100019218C7
:100480005B411A4301D120F0010010BD2DE9F04D70
:1004900092469B4611B1B1FA81F202E0B0FA80F2C5
:1004A00020329046FFF7B2FF04460F4640EA0A00AA
:1004B00041EA0B0153465A46084313D0114653EA0A
:1004C000010019D0C8F140025046FFF7AEFF0546C3
:1004D0000E46504659464246FFF798FF084305D05E
:1004E000012004E020463946BDE8F08D0020054398
:1004F00046EAE0762C4337430A986305E40AA0EB0A
:1005000008000022FD0A44EA47540A3002D50020C0
:100510000146E9E7010510196941DDE908450019BF
:100520006941BDE8F04DA2E7064C074D06E0E068E2
:1005300040F0010394E8070098471034AC42F6D32A
:10054000FFF7FAFD541B0008741B0008CA43026041
:10055000704721B1826842F00102826003E0826844
:1005600022F001028260704710B5044612488442AE
:1005700008D10121401500F0E5FC0021601500F0D4
:10058000E1FC17E00D48844208D10121001500F07C
:10059000D9FC0021201500F0D5FC0BE0084884426E
:1005A00008D10121C80300F0CDFC00214FF4004028
:1005B00000F0C8FC10BD00000024014000280140EC
:1005C000003C0140014600208A6802F004020AB1A2
:1005D000012000E0002070470146C86C80B27047DF
:1005E0000246002013680B400BB1012000E0002000
:1005F0007047014600208A6802F008020AB1012013
:1006000000E00020704710B50023CBB21AB1446857
:100610001C43446002E044689C43446010BD0000F9
:1006200030B502460020002350680F4C20400D7961
:100630000C6844EA05242043506090680B4C20402D
:10064000D1E902542C434D7944EA4504204390609B
:10065000D06A20F470000C7C641EE4B2234340EAAC
:100660000350D06230BD0000FFFEF0FFFDF7F1FF48
:10067000F0B504460D4600200021092D11DDE0688B
:10068000A5F10A0606EB4607072606FA07F1884396
:10069000A5F10A0606EB460603FA06F10843E060F8
:1006A0000CE0206905EB4507072606FA07F18843A9
:1006B00005EB450603FA06F108432061072A0FDA25
:1006C000606B561E06EB86071F2606FA07F1884365
:1006D000561E06EB860605FA06F10843606322E023
:1006E0000D2A0FDA206BD61F06EB86071F2606FAA7
:1006F00007F18843D61F06EB860605FA06F1084384
:10070000206310E0E06AA2F10D0606EB86071F26C3
:1007100006FA07F18843A2F10D0606EB860605FAF4
:1007200006F10843E062F0BD816841F00801816094
:10073000704721B1826842F4A002826003E08268BF
:1007400022F4A00282607047816841F00401816058
:100750007047000000B587B001214FF4047000F02D
:10076000E1FB4FF4004000F0C1FB0120ADF80400B4
:1007700000208DF8070001A91E4800F02DF91E4841
:10078000FFF7F2FE002002908DF80C008DF80D00AE
:100790004FF4602004900020059001208DF818008F
:1007A00000224FF408711448FFF72DFF0221124870
:1007B000FFF7CCFE02A91048FFF732FF01210E48D7
:1007C000FFF7C7FE0C48FFF7AFFF00BF0A48FFF76F
:1007D00010FF0028FAD10848FFF7B6FF00BF06480F
:1007E000FFF7F0FE0028FAD101210348FFF7A1FF2F
:1007F00007B000BD001001400024014000BFFEE72B
:100800007047000010B56FF0040000F04BFD0A487F
:1008100000680A49B0FBF1F0094908700846007801
:1008200000EB4001C1EBC0104FF6FF7101EAC000C0
:100830000449088010BD00000000002000127A006A
:10084000480000204A000020012012490860124898
:10085000006878B91048001D006828B90F48006882
:10086000401C0E49086014E00C480068401E0B490B
:1008700008600EE00848001D006828B907480068B5
:10088000401E0649086004E004480068401C034913
:1008900008607047140401400081214214000020C8
:1008A0000220134908601348006801280FD111483D
:1008B000001F006828B910480068401C0E490860F5
:1008C00014E00D480068401E0B4908600EE009481E
:1008D000001F006828B908480068401E06490860E3
:1008E00004E005480068401C0349086070470000A8
:1008F00014040140048121421400002010B540205E
:1009000000F056F8F8B140202649086026480068F3
:1009100001280FD12448001D006828B92348006829
:10092000401C2249086014E020480068401E1F490E
:1009300008600EE01C48001D006828B91B480068CC
:10094000401E1A49086004E018480068401C174916
:100950000860802000F02CF818B38020114908604E
:100960001148001D006870B90F48006828B90F4889
:100970000068401C0D49086013E00C480068401EE8
:100980000A4908600DE00848006828B9074800686F
:10099000401E0649086004E004480068401C034902
:1009A000086010BD14040140180121421800002005
:1009B000014600200022074B1B6803EA0102054B99
:1009C00014331B680B4013B10AB1012000E0002072
:1009D00070470000000401402DE9F0410246002567
:1009E0000026002000230024002791F803C00CF00B
:1009F0000F0591F803C00CF0100CBCF1000F03D0F0
:100A000091F802C04CEA050591F800C0BCF1000F56
:100A100031D0146800202BE04FF0010C0CFA00F3E9
:100A2000B1F800C00CEA03069E4220D183004FF0CB
:100A30000F0C0CFA03F7BC4305FA03FC4CEA040460
:100A400091F803C0BCF1280F06D14FF0010C0CFA4D
:100A500000FCC2F814C00AE091F803C0BCF1480FD2
:100A600005D14FF0010C0CFA00FCC2F810C0401C7C
:100A70000828D1D31460B1F800C0BCF1FF0F34DDF9
:100A8000546800202EE000F1080C4FF0010808FA2D
:100A90000CF3B1F800C00CEA03069E4221D183009A
:100AA0004FF00F0C0CFA03F7BC4305FA03FC4CEAB9
:100AB000040491F803C0BCF1280F05D100F1080C23
:100AC00008FA0CF8C2F8148091F803C0BCF1480F82
:100AD00007D100F1080C4FF0010808FA0CF8C2F831
:100AE0001080401C0828CED35460BDE8F0814161DD
:100AF000704701617047000010B5044607230122CA
:100B000021460948FFF7B4FD01210748FFF711FE10
:100B100000BF02210448FFF763FD0028F9D0024816
:100B2000FFF75AFD10BD0000002401402DE9F041FF
:100B300007460C460025002605E03846FFF7DCFF97
:100B40000544701CC6B2A642F7DBB5FBF4F080B2D8
:100B5000BDE8F08100BFFEE708B50121402000F0AC
:100B6000E1F94020ADF8000010208DF803000320CB
:100B70008DF8020069460448FFF72EFF4021024825
:100B8000FFF7B7FF08BD00000018014000BFFEE7F7
:100B9000704700001CB511A103C9CDE90001082070
:100BA00000F0BEFA05226946302000F025F9052242
:100BB0006946102000F084F8002406E01DF80400C7
:100BC000A52800D003E0601CC4B2052CF6DB00BFF2
:100BD000052C01D001201CBD0020FCE7A5A5A5A582
:100BE000A500000000B587B001214FF4847000F02B
:100BF00099F94FF48050ADF8180010208DF81B00C3
:100C000003208DF81A0006A92848FFF7E5FE4FF4E7
:100C100080512648FFF76DFFC020ADF8180006A9E7
:100C20002348FFF7D9FE4FF48070ADF81800282054
:100C30008DF81B0006A91E48FFF7CEFE4FF4E071A9
:100C40001B48FFF754FF00F0F7F90021194800F0A6
:100C50007BFA0020ADF804004FF48270ADF8060076
:100C60000020ADF80800ADF80A00ADF80C004FF414
:100C70000070ADF80E001820ADF810000020ADF89F
:100C800012000720ADF8140001A90A4800F076FA16
:100C90000121084800F058FA0020074908600120A7
:100CA0000649C1F89C0107B000BD0000000C0140DE
:100CB00000200140003800409801244200002442F6
:100CC0002DE9F04107460D46164600200A49086006
:100CD000384600F0FBF98046002405E0FF2000F0D4
:100CE000F5F92855601CC4B2B442F7DB0120024973
:100CF00008604046BDE8F0819C01244270B504467E
:100D0000002007490860204600F0E0F9FF2000F0CD
:100D1000DDF9054601200349C1F89C01284670BD54
:100D20009C0124420000244210B5002014490860B0
:100D300005221449302000F05FF8052212492A20CC
:100D400000F05AF80121212000F074F8012122203E
:100D500000F070F81A21242000F06CF80021252002
:100D600000F068F80F21262000F064F80E21202002
:100D700000F060F801200549C1F8980110BD00009D
:100D800098012442481B00084D1B00080000244223
:100D900070B50546102000F0C3F900201449086022
:100DA00020222946A02000F027F801201149C1F88F
:100DB000980100BF0E48783800680028FAD1072053
:100DC000FFF79CFF04462146272000F033F804F08B
:100DD000100028B1FF21E12000F02CF8102070BD98
:100DE00004F0200008B12020F9E7FF20F7E7000019
:100DF00098012442000024422DE9F04107460C46A8
:100E0000154600200A490860384600F05FF9804620
:100E1000002605E014F8010B00F058F9701CC6B26A
:100E2000AE42F7DB0120024908604046BDE8F08190
:100E30009C01244270B505460C4600200749086015
:100E4000284600F043F90646204600F03FF901200D
:100E50000349C1F89C01304670BD00009C0124424A
:100E60000000244270B5002100230F22C47804B38F
:100E7000154C246804F4E064C4F5E064210AC1F16F
:100E80000403CA40447804FA03F1847814402143EF
:100E900009010E4C0678A155047804F01F050124C1
:100EA000AC4005786D11AD0005F1E025C5F80041B5
:100EB00009E0047804F01F050124AC40044D0678D5
:100EC000761145F8264070BD0CED00E000E400E02E
:100ED00080E100E002490143024A116070470000CE
:100EE0000000FA050CED00E070470000014600200C
:100EF000034A506820F440400843506070470000A7
:100F00000010024029B1064AD2690243044BDA615B
:100F100004E0034AD2698243014BDA617047000062
:100F20000010024029B1064A92690243044B9A61BB
:100F300004E0034A92698243014B9A6170470000C2
:100F40000010024029B1064AD2680243044BDA601D
:100F500004E0034AD2688243014BDA607047000024
:100F60000010024030B500210022002400232D4D46
:100F70006D6805F00C0121B1042905D0082923D1A1
:100F800005E0294D056022E0274D05601FE0254D55
:100F90006D6805F47012234D6D6805F480340225E8
:100FA00005EB92421CB9214D554305600BE01D4DE8
:100FB0006D6805F400351DB11C4D5543056002E018
:100FC000194D5543056002E0174D056000BF00BF95
:100FD000144D6D6805F0F0010909154D6B5C05684D
:100FE000DD4045600F4D6D6805F4E061090A104D64
:100FF0006B5C4568DD4085600A4D6D6805F46051A5
:10100000C90A0B4D6B5C4568DD40C560054D6D68D8
:1010100005F44041890B074D6B5CC568B5FBF3F5E2
:10102000056130BD0010024000127A0000093D0049
:10103000520000206200002000B587B00121082086
:10104000FFF770FF01218803FFF75CFF4FF460405A
:10105000ADF8180018208DF81B0003208DF81A0039
:1010600006A91848FFF7B8FC4FF460411548FFF790
:1010700040FD0020ADF804004FF48270ADF806008A
:101080000020ADF808000220ADF80A000120ADF8FC
:101090000C004002ADF80E003820ADF81000002022
:1010A000ADF812000720ADF8140001A9064800F0C1
:1010B00065F80121044800F047F8FF2000F006F829
:1010C00007B000BD000C01400038004070B5054677
:1010D000002405E0601CC4B2C82C01DD002070BDF6
:1010E00002210E4800F03CF80028F3D029460B48B6
:1010F00000F042F8002405E0601CC4B2C82C01DDF9
:101100000020ECE70121054800F02AF80028F3D080
:10111000024800F02EF8C0B2E1E7000000380040BD
:1011200010B50446074800884FF6C77108400549C6
:10113000088008460088204308800121014800F00B
:1011400003F810BD0038004021B1028842F040028F
:10115000028004E002884FF6BF731A400280704795
:101160000246002013890B400BB1012000E0002053
:1011700070470146888970478181704710B5002209
:10118000028802F441520B884C8823438C88234305
:10119000CC8823430C8923434C8923438C892343E4
:1011A000CC8923431A430280838B4FF2FF74234080
:1011B00083830B8A038210BD704710B500F002F8DC
:1011C00010BD00000CB5002001900090334800686D
:1011D00040F480303149086000BF3048006800F4B6
:1011E000003000900198401C0190009818B90198B7
:1011F000B0F5A06FF1D12948006800F4003010B1BB
:101200000120009001E0002000900098012843D1C7
:101210002348006840F01000214908600846006833
:1012200020F0030008600846006840F002000860F3
:101230001A484068194948600846406848600846AE
:10124000406840F4806048600846406820F47C10A4
:1012500048600846406840F4E81048600846006866
:1012600040F08070086000BF0C48006800F000701B
:101270000028F9D00948406820F003000749486079
:101280000846406840F00200486000BF03484068DC
:1012900000F00C000828F9D10CBD0000001002403D
:1012A00000200240042808D14FF0E021096941F0F4
:1012B00004014FF0E022116107E04FF0E0210969DD
:1012C00021F004014FF0E0221161704770470000E7
:1012D00010B51348006840F0010011490860084645
:1012E0004068104908400E494860084600680E49A9
:1012F00008400B4908600846006820F48020086018
:101300000846406820F4FE0048604FF41F008860E3
:10131000FFF753FF4FF000600449086010BD000064
:10132000001002400000FFF8FFFFF6FE08ED00E0AD
:101330001FB50121C802FFF7F5FD41F28730ADF876
:1013400008008F20ADF804000020ADF80A00ADF8C9
:1013500006008DF80C0001A90D4800F0BBF8012231
:1013600011460B4800F0ACF819208DF80000002061
:101370008DF8010003208DF8020001208DF8030094
:101380006846FFF76FFD0121014800F07CF81FBDA2
:10139000002C01402DE9F05F01212B4800F07FF87F
:1013A00000284ED00A210846FFF7C0FB27490880D5
:1013B00009884FF4A57201FB02F0C11700EB11512F
:1013C0000913234A118010460088FEF7E3FF804688
:1013D0000022204BFEF76FFF06461F4A1F4BFEF709
:1013E00064FF044622460B461D481E49FEF763FF74
:1013F0008246FEF7DCFF1C4908701C480068401C50
:101400001A49086008460068322816D11648017843
:1014100017A000F001FA1849134800F0F2FA164834
:10142000FFF7B6FC1548006808B9012000E000206D
:101430001249086000200D4908600121024800F0AF
:101440001FF8BDE8F09F0000002C01402A0000209A
:101450002800002000005940C3F5285C8FC2D53F0A
:10146000CDCCCCCCCCCC34403400002024000020A7
:1014700025640D0A00000000680000209801234246
:10148000CA430282704721B1028842F00102028001
:1014900004E002884FF6FE731A400280704730B5B0
:1014A0000246002000230024158A05EA01039589DD
:1014B00005EA010413B10CB1012000E0002030BDA9
:1014C0001AB183890B43838102E083898B43838133
:1014D00070470000002202881D4B98420ED01D4B21
:1014E00098420BD0B0F1804F08D01B4B984205D0EA
:1014F0001A4B984202D01A4B984204D14FF68F7380
:101500001A404B881A43174B984207D0164B984203
:1015100004D04FF6FF431A40CB881A4302808B88D1
:1015200083850B8803850A4B98420BD0094B984260
:1015300008D00E4B984205D00D4B984202D00D4B6F
:10154000984201D10B7A0386012383827047000001
:10155000002C01400034014000040040000800401D
:10156000000C00400010004000140040004001400A
:10157000004401400048014010B540F225511D488B
:1015800000F086F810B31B4800F03EF9C4B21A48C8
:10159000008800F40040C8B91748008800F4804073
:1015A00060B10A2C03D000201349088020E01248C3
:1015B000008840F400401049088019E00D2C06D145
:1015C0000D48008840F480400B49088010E00A482C
:1015D0000088C0F30D0009490C5407480088401CDE
:1015E0000549088008460088C72801DD00200880DA
:1015F00010BD00000038014050000020D400002041
:1016000010B540F22551174800F042F838B315489C
:1016100000F0FAF81449154A1278885413480078F3
:1016200020B908460078552800D010BD0F48007832
:10163000401C0E490870084600780B280FD10C4852
:1016400009490A6802604A6842600A890281897A07
:10165000817200200549087001200649087000BF0A
:10166000E3E7000000480040970000203900002018
:101670008C0000203800002021B1828942F4005201
:10168000828104E082894DF6FF731A40828170479F
:1016900070B50246002400230025002040F66A169B
:1016A000B14200D100BFC1F3421501F01F03012672
:1016B00006FA03F3012D02D19689334006E0022D8C
:1016C00002D1168A334001E0968A33400C1201267B
:1016D00006FA04F41688344013B10CB1012000E07E
:1016E000002070BDF0B50346002400260025002030
:1016F00040F66A17B94200D100BF1846C1F3421440
:1017000001F01F06012707FA06F5012C01D10C3064
:1017100004E0022C01D1103000E014301AB1076847
:101720002F43076002E00768AF430760F0BD000089
:101730002DE9F04786B005460E460024A24600BFBC
:10174000A1460027B08900B100BF2F462C8A4CF675
:10175000FF700440F08804432C82AC894EF6F310ED
:101760000440B08831890843718908430443AC813F
:10177000AC8A4FF6FF400440B0890443AC8201A814
:10178000FFF7F0FB1F48874202D1DDF810A001E00F
:10179000DDF80CA0A88900F4004040B10AEBCA00B3
:1017A00000EB0A1031684900B0FBF1F807E00AEBE2
:1017B000CA0000EB0A1031688900B0FBF1F8642020
:1017C000B8FBF0F004012009642101FB1089A8890D
:1017D00000F4004040B1322000EBC900B0FBF1F052
:1017E00000F00700044308E0322000EB09106421F8
:1017F000B0FBF1F000F00F0004432C8106B0BDE80F
:10180000F08700000038014001468888C0F30800D6
:10181000704700BFFEE700000FB4054B10B503A9E9
:10182000044A029800F018F810BC5DF814FB0000A0
:10183000AD1900084C00002002E008C8121F08C1C2
:10184000002AFAD170477047002001E001C1121F41
:10185000002AFBD1704700002DE9FF4F89B09B465D
:101860000446002506E025280BD05A460B999047E0
:10187000641C6D1C20780028F5D10DB02846BDE809
:10188000F08F0027B8460122474900E0074314F8CB
:10189000013F203B02FA03F00842F7D120782E28BE
:1018A00019D114F8010F47F004072A280ED06FF061
:1018B0002F022078A0F1300109290CD808EB88010B
:1018C00002EB410100EB0108641CF2E70A98641C7A
:1018D00050F8048B0A9020780028CED0642808D0D5
:1018E000692806D075281ED05A460B9990476D1C62
:1018F00058E00A994FF00A0901C90A91002802DA52
:1019000040422D2102E0390504D52B218DF820100D
:10191000012103E0F90704D02021F7E78A4608AE49
:101920000DE00021FAE70A994FF00A0901C90A916E
:10193000F7E74946FEF754FD303106F8011D00284F
:10194000F7D1ADEB060000F12009780701D44FF084
:101950000108C84502DDA8EB090000E00020804630
:10196000002706E008A85A46C05D0B9990476D1CF9
:101970007F1C5745F6DB04E030205A460B99904710
:101980006D1CB8F10001A8F10108F5DC05E016F8BE
:10199000010B5A460B9990476D1CB9F10001A9F152
:1019A0000109F4DC641C65E70928010000BF054A51
:1019B000128802F04002002AF9D0C2B2014B1B1D6E
:1019C0001A80704700380140FEF71CFF4FF4A060FA
:1019D000FFF780FA4FF4E13000F066F8FFF7BCF84B
:1019E000FFF72AFBFFF7FEF800BFFFF7D3F8002848
:1019F000FBD1FEF7AFFEFFF797F9FFF799FC00BFA9
:101A0000FEE770B503460A461C780A2594FBF5F6F6
:101A100005FB16440A2C1AD2DFE804F00507090B6F
:101A20000D0F11131517302111E031210FE0322174
:101A30000DE033210BE0342109E0352107E03621A8
:101A400005E0372103E0382101E0392100BF00BF64
:101A50001C780A2594FBF5F40A2C1AD2DFE804F06E
:101A60000507090B0D0F11131517302011E0312058
:101A70000FE032200DE033200BE0342009E0352068
:101A800007E0362005E0372003E0382001E0392068
:101A900000BF00BF04241470507091700D24D470E6
:101AA0000A24147170BD000010B586B004460121EF
:101AB00044F20400FFF736FA4FF40070ADF814005A
:101AC00003208DF8160018208DF8170005A91C4872
:101AD000FEF782FF4FF48060ADF8140004208DF80B
:101AE000170005A91648FEF777FF25208DF800009E
:101AF00003208DF801008DF8020001208DF803000D
:101B00006846FFF7AFF901940020ADF80800ADF882
:101B10000A00ADF80C00ADF810000C20ADF80E0076
:101B200001A90848FFF704FE012240F225510548AB
:101B3000FFF7D8FD01210348FFF79EFD06B010BD59
:101B40000008014000380140AABBCCDDEEAABBCCA6
:101B5000DDEE0000741B000800000020680000009B
:101B600038180008DC1B0008680000203805000059
:101B70004818000800A24A0400000000000000000D
:101B8000010203040607080900000000000000002D
:101B90000000000000000000000000000000000045
:101BA0000000000000000000000000000000FF0036
:101BB000AA00520000000000000000000000000029
:101BC0000000000000000000000001020304010208
:0C1BD000030406070809020406080000D0
:0400000508000145A9
:00000001FF
